{
  "_format": "hh-sol-artifact-1",
  "contractName": "AgentERC20Token",
  "sourceName": "contracts/AgentERC20Factory.sol",
  "abi": [
    {
      "inputs": [
        {
          "internalType": "string",
          "name": "name",
          "type": "string"
        },
        {
          "internalType": "string",
          "name": "symbol",
          "type": "string"
        },
        {
          "internalType": "uint256",
          "name": "initialSupply",
          "type": "uint256"
        },
        {
          "internalType": "uint8",
          "name": "tokenDecimals",
          "type": "uint8"
        },
        {
          "internalType": "address",
          "name": "tokenOwner",
          "type": "address"
        },
        {
          "internalType": "address",
          "name": "tokenCreator",
          "type": "address"
        }
      ],
      "stateMutability": "nonpayable",
      "type": "constructor"
    },
    {
      "inputs": [
        {
          "internalType": "address",
          "name": "spender",
          "type": "address"
        },
        {
          "internalType": "uint256",
          "name": "allowance",
          "type": "uint256"
        },
        {
          "internalType": "uint256",
          "name": "needed",
          "type": "uint256"
        }
      ],
      "name": "ERC20InsufficientAllowance",
      "type": "error"
    },
    {
      "inputs": [
        {
          "internalType": "address",
          "name": "sender",
          "type": "address"
        },
        {
          "internalType": "uint256",
          "name": "balance",
          "type": "uint256"
        },
        {
          "internalType": "uint256",
          "name": "needed",
          "type": "uint256"
        }
      ],
      "name": "ERC20InsufficientBalance",
      "type": "error"
    },
    {
      "inputs": [
        {
          "internalType": "address",
          "name": "approver",
          "type": "address"
        }
      ],
      "name": "ERC20InvalidApprover",
      "type": "error"
    },
    {
      "inputs": [
        {
          "internalType": "address",
          "name": "receiver",
          "type": "address"
        }
      ],
      "name": "ERC20InvalidReceiver",
      "type": "error"
    },
    {
      "inputs": [
        {
          "internalType": "address",
          "name": "sender",
          "type": "address"
        }
      ],
      "name": "ERC20InvalidSender",
      "type": "error"
    },
    {
      "inputs": [
        {
          "internalType": "address",
          "name": "spender",
          "type": "address"
        }
      ],
      "name": "ERC20InvalidSpender",
      "type": "error"
    },
    {
      "inputs": [],
      "name": "EnforcedPause",
      "type": "error"
    },
    {
      "inputs": [],
      "name": "ExpectedPause",
      "type": "error"
    },
    {
      "inputs": [
        {
          "internalType": "address",
          "name": "owner",
          "type": "address"
        }
      ],
      "name": "OwnableInvalidOwner",
      "type": "error"
    },
    {
      "inputs": [
        {
          "internalType": "address",
          "name": "account",
          "type": "address"
        }
      ],
      "name": "OwnableUnauthorizedAccount",
      "type": "error"
    },
    {
      "anonymous": false,
      "inputs": [
        {
          "indexed": true,
          "internalType": "address",
          "name": "owner",
          "type": "address"
        },
        {
          "indexed": true,
          "internalType": "address",
          "name": "spender",
          "type": "address"
        },
        {
          "indexed": false,
          "internalType": "uint256",
          "name": "value",
          "type": "uint256"
        }
      ],
      "name": "Approval",
      "type": "event"
    },
    {
      "anonymous": false,
      "inputs": [
        {
          "indexed": true,
          "internalType": "address",
          "name": "previousOwner",
          "type": "address"
        },
        {
          "indexed": true,
          "internalType": "address",
          "name": "newOwner",
          "type": "address"
        }
      ],
      "name": "OwnershipTransferred",
      "type": "event"
    },
    {
      "anonymous": false,
      "inputs": [
        {
          "indexed": false,
          "internalType": "address",
          "name": "account",
          "type": "address"
        }
      ],
      "name": "Paused",
      "type": "event"
    },
    {
      "anonymous": false,
      "inputs": [
        {
          "indexed": false,
          "internalType": "string",
          "name": "newDescription",
          "type": "string"
        }
      ],
      "name": "TokenDescriptionUpdated",
      "type": "event"
    },
    {
      "anonymous": false,
      "inputs": [
        {
          "indexed": true,
          "internalType": "address",
          "name": "to",
          "type": "address"
        },
        {
          "indexed": false,
          "internalType": "uint256",
          "name": "amount",
          "type": "uint256"
        }
      ],
      "name": "TokenMinted",
      "type": "event"
    },
    {
      "anonymous": false,
      "inputs": [
        {
          "indexed": true,
          "internalType": "address",
          "name": "from",
          "type": "address"
        },
        {
          "indexed": true,
          "internalType": "address",
          "name": "to",
          "type": "address"
        },
        {
          "indexed": false,
          "internalType": "uint256",
          "name": "value",
          "type": "uint256"
        }
      ],
      "name": "Transfer",
      "type": "event"
    },
    {
      "anonymous": false,
      "inputs": [
        {
          "indexed": false,
          "internalType": "address",
          "name": "account",
          "type": "address"
        }
      ],
      "name": "Unpaused",
      "type": "event"
    },
    {
      "inputs": [
        {
          "internalType": "address",
          "name": "owner",
          "type": "address"
        },
        {
          "internalType": "address",
          "name": "spender",
          "type": "address"
        }
      ],
      "name": "allowance",
      "outputs": [
        {
          "internalType": "uint256",
          "name": "",
          "type": "uint256"
        }
      ],
      "stateMutability": "view",
      "type": "function"
    },
    {
      "inputs": [
        {
          "internalType": "address",
          "name": "spender",
          "type": "address"
        },
        {
          "internalType": "uint256",
          "name": "value",
          "type": "uint256"
        }
      ],
      "name": "approve",
      "outputs": [
        {
          "internalType": "bool",
          "name": "",
          "type": "bool"
        }
      ],
      "stateMutability": "nonpayable",
      "type": "function"
    },
    {
      "inputs": [
        {
          "internalType": "address",
          "name": "account",
          "type": "address"
        }
      ],
      "name": "balanceOf",
      "outputs": [
        {
          "internalType": "uint256",
          "name": "",
          "type": "uint256"
        }
      ],
      "stateMutability": "view",
      "type": "function"
    },
    {
      "inputs": [
        {
          "internalType": "uint256",
          "name": "value",
          "type": "uint256"
        }
      ],
      "name": "burn",
      "outputs": [],
      "stateMutability": "nonpayable",
      "type": "function"
    },
    {
      "inputs": [
        {
          "internalType": "address",
          "name": "account",
          "type": "address"
        },
        {
          "internalType": "uint256",
          "name": "value",
          "type": "uint256"
        }
      ],
      "name": "burnFrom",
      "outputs": [],
      "stateMutability": "nonpayable",
      "type": "function"
    },
    {
      "inputs": [],
      "name": "creator",
      "outputs": [
        {
          "internalType": "address",
          "name": "",
          "type": "address"
        }
      ],
      "stateMutability": "view",
      "type": "function"
    },
    {
      "inputs": [],
      "name": "decimals",
      "outputs": [
        {
          "internalType": "uint8",
          "name": "",
          "type": "uint8"
        }
      ],
      "stateMutability": "view",
      "type": "function"
    },
    {
      "inputs": [],
      "name": "getTokenDescription",
      "outputs": [
        {
          "internalType": "string",
          "name": "",
          "type": "string"
        }
      ],
      "stateMutability": "view",
      "type": "function"
    },
    {
      "inputs": [
        {
          "internalType": "address",
          "name": "to",
          "type": "address"
        },
        {
          "internalType": "uint256",
          "name": "amount",
          "type": "uint256"
        }
      ],
      "name": "mint",
      "outputs": [],
      "stateMutability": "nonpayable",
      "type": "function"
    },
    {
      "inputs": [],
      "name": "name",
      "outputs": [
        {
          "internalType": "string",
          "name": "",
          "type": "string"
        }
      ],
      "stateMutability": "view",
      "type": "function"
    },
    {
      "inputs": [],
      "name": "owner",
      "outputs": [
        {
          "internalType": "address",
          "name": "",
          "type": "address"
        }
      ],
      "stateMutability": "view",
      "type": "function"
    },
    {
      "inputs": [],
      "name": "pause",
      "outputs": [],
      "stateMutability": "nonpayable",
      "type": "function"
    },
    {
      "inputs": [],
      "name": "paused",
      "outputs": [
        {
          "internalType": "bool",
          "name": "",
          "type": "bool"
        }
      ],
      "stateMutability": "view",
      "type": "function"
    },
    {
      "inputs": [],
      "name": "renounceOwnership",
      "outputs": [],
      "stateMutability": "nonpayable",
      "type": "function"
    },
    {
      "inputs": [
        {
          "internalType": "string",
          "name": "newDescription",
          "type": "string"
        }
      ],
      "name": "setTokenDescription",
      "outputs": [],
      "stateMutability": "nonpayable",
      "type": "function"
    },
    {
      "inputs": [],
      "name": "symbol",
      "outputs": [
        {
          "internalType": "string",
          "name": "",
          "type": "string"
        }
      ],
      "stateMutability": "view",
      "type": "function"
    },
    {
      "inputs": [],
      "name": "totalSupply",
      "outputs": [
        {
          "internalType": "uint256",
          "name": "",
          "type": "uint256"
        }
      ],
      "stateMutability": "view",
      "type": "function"
    },
    {
      "inputs": [
        {
          "internalType": "address",
          "name": "to",
          "type": "address"
        },
        {
          "internalType": "uint256",
          "name": "value",
          "type": "uint256"
        }
      ],
      "name": "transfer",
      "outputs": [
        {
          "internalType": "bool",
          "name": "",
          "type": "bool"
        }
      ],
      "stateMutability": "nonpayable",
      "type": "function"
    },
    {
      "inputs": [
        {
          "internalType": "address",
          "name": "from",
          "type": "address"
        },
        {
          "internalType": "address",
          "name": "to",
          "type": "address"
        },
        {
          "internalType": "uint256",
          "name": "value",
          "type": "uint256"
        }
      ],
      "name": "transferFrom",
      "outputs": [
        {
          "internalType": "bool",
          "name": "",
          "type": "bool"
        }
      ],
      "stateMutability": "nonpayable",
      "type": "function"
    },
    {
      "inputs": [
        {
          "internalType": "address",
          "name": "newOwner",
          "type": "address"
        }
      ],
      "name": "transferOwnership",
      "outputs": [],
      "stateMutability": "nonpayable",
      "type": "function"
    },
    {
      "inputs": [],
      "name": "unpause",
      "outputs": [],
      "stateMutability": "nonpayable",
      "type": "function"
    }
  ],
  "bytecode": "0x604060a08152346200055f5762001561803803806200001e8162000564565b928339810160c0828203126200055f5781516001600160401b0392908381116200055f5782620000509183016200058a565b9260209283830151908282116200055f576200006e9184016200058a565b91858101519260608201519260ff8416968785036200055f57620000a360a06200009b60808701620005fc565b9501620005fc565b91815181811162000450576003908154906001948583811c9316801562000554575b8c8410146200053e5781908c601f94858111620004e5575b50508c90848311600114620004725760009262000466575b505060001982851b1c191690851b1782555b8551928311620004505760049586548581811c9116801562000445575b8c821014620004305780838d9211620003e3575b50508a91841160011462000376579383949184926000956200036a575b50501b92600019911b1c19161782555b6001600160a01b038381169790939088156200035357600554948a51908a818860081c167f8be0079c531659141344cd1fd0a4f28419497f9722a3daafe3b4186f6b6457e0600080a3841615620003205750861515908162000313575b5015620002df57610100600160b01b0319841660089190911b610100600160a81b03161760a885901b60ff60a81b161760055560805260ff62000210620002098562000611565b8662000639565b9216620002d15760025490828201809211620002bc57506200029f928660007fddf252ad1be2c89b69c2b068fc378daa952ba7f163c4a11628f55a4df523b3ef887fb9144c96c86541f6fa89c9f2f02495cccf4b08cd6643e26d34ee00aa586558a899989662000298966002558484528382528c84208181540190558c51908152a362000611565b9062000639565b8451908152a251610f1390816200064e8239608051816109530152f35b601190634e487b7160e01b6000525260246000fd5b865163d93c066560e01b8152fd5b885162461bcd60e51b8152808401889052600e60248201526d496e76616c696420706172616d7360901b6044820152606490fd5b60129150111538620001c2565b62461bcd60e51b8152848101899052600f60248201526e496e76616c6964206164647265737360881b6044820152606490fd5b8951631e4fbdf760e01b8152600081860152602490fd5b01519350388062000155565b9190601f1984169287600052848c600020948d6000905b89838310620003ca5750505010620003af575b50505050811b01825562000165565b01519060f884600019921b161c1916905538808080620003a0565b8686015189559097019694850194889350018e6200038d565b8860005283826000209181880160051c830193881062000426575b0160051c019086905b8281106200041957508c915062000138565b6000815501869062000407565b92508192620003fe565b602288634e487b7160e01b6000525260246000fd5b90607f169062000124565b634e487b7160e01b600052604160045260246000fd5b015190503880620000f5565b879350908d91601f1984168760005283600020936000905b828210620004c35750508411620004aa575b505050811b01825562000107565b015160001983871b60f8161c191690553880806200049c565b91929395968291958786015181550195019301908f918a96959493926200048a565b909192508560005284826000209181860160051c830193861062000534575b918991869594930160051c01915b8281106200052457508e9150620000dd565b6000815585945089910162000512565b9250819262000504565b634e487b7160e01b600052602260045260246000fd5b92607f1692620000c5565b600080fd5b6040519190601f01601f191682016001600160401b038111838210176200045057604052565b919080601f840112156200055f5782516001600160401b0381116200045057602090620005c0601f8201601f1916830162000564565b928184528282870101116200055f5760005b818110620005e857508260009394955001015290565b8581018301518482018401528201620005d2565b51906001600160a01b03821682036200055f57565b60ff16604d81116200062357600a0a90565b634e487b7160e01b600052601160045260246000fd5b81810292918115918404141715620006235756fe6040608081526004908136101561001557600080fd5b600091823560e01c8062d5da021461097757806302d05d3f1461093357806306fdde031461086b578063095ea7b3146107c257806318160ddd146107a357806323b872dd14610766578063313ce5671461074157806338abc4bc146106795780633f4ba83a1461061057806340c10f19146104d757806342966c68146104b95780635c975abb1461049557806370a082311461045f578063715018a6146103f357806379cc6790146103bd5780638456cb59146103625780638da5cb5b1461033757806395d89b411461023b578063a9059cbb1461020a578063dd62ed3e146101bd5763f2fde38b1461010757600080fd5b346101b95760203660031901126101b957610120610bc4565b610128610bf5565b6001600160a01b03918282169384156101a357505074ffffffffffffffffffffffffffffffffffffffff006005549160081b1674ffffffffffffffffffffffffffffffffffffffff001982161760055560081c167f8be0079c531659141344cd1fd0a4f28419497f9722a3daafe3b4186f6b6457e08380a380f35b51631e4fbdf760e01b8152908101859052602490fd5b8280fd5b505034610206578060031936011261020657806020926101db610bc4565b6101e3610bdf565b6001600160a01b0391821683526001865283832091168252845220549051908152f35b5080fd5b50503461020657806003193601126102065760209061023461022a610bc4565b6024359033610c5e565b5160018152f35b5091903461020657816003193601126102065780519082845461025d81610c24565b8085529060019081811690811561031957506001146102bf575b5050829003601f01601f191682019267ffffffffffffffff8411838510176102ac57508291826102a8925282610b7b565b0390f35b634e487b7160e01b815260418552602490fd5b86865290915084907f8a35acfbc15ff81a39ae7d344fd709f28e8600b4aa8c65c6b64bfe7fe36bd19b5b838310610300575050602091508301013880610277565b81816020929493945483858a01015201910191906102e9565b9150506020925060ff191682850152151560051b8301013880610277565b5050346102065781600319360112610206576020906001600160a01b0360055460081c169051908152f35b50503461020657816003193601126102065760207f62e78cea01bee320cd4e420270b5ea74000d11b0c9f74754ebdbfc544b05a258916103a0610bf5565b6103a8610ebf565b600160ff19600554161760055551338152a180f35b505034610206573660031901126103f0576103ed6103d9610bc4565b602435906103e8823383610d44565b610e18565b80f35b80fd5b83346103f057806003193601126103f05761040c610bf5565b806001600160a01b0360055474ffffffffffffffffffffffffffffffffffffffff0019811660055560081c167f8be0079c531659141344cd1fd0a4f28419497f9722a3daafe3b4186f6b6457e08280a380f35b50503461020657602036600319011261020657806020926001600160a01b03610486610bc4565b16815280845220549051908152f35b50503461020657816003193601126102065760209060ff6005541690519015158152f35b838234610206576020366003190112610206576103ed903533610e18565b5090346101b957806003193601126101b9576104f1610bc4565b906001600160a01b0360243592610506610bf5565b16928315801580610607575b156105c4576105af57610523610ebf565b6002549083820180921161059c5750916020917fb9144c96c86541f6fa89c9f2f02495cccf4b08cd6643e26d34ee00aa586558a89360025584865285835280862082815401905584867fddf252ad1be2c89b69c2b068fc378daa952ba7f163c4a11628f55a4df523b3ef858451868152a351908152a280f35b634e487b7160e01b865260119052602485fd5b84602492519163ec442f0560e01b8352820152fd5b506020606492519162461bcd60e51b8352820152600e60248201527f496e76616c696420706172616d730000000000000000000000000000000000006044820152fd5b50831515610512565b50346101b957826003193601126101b957610629610bf5565b6005549060ff82161561066b575060ff1916600555513381527f5db9ee0a495bf2e6ff9c91a7834c1ba4fdd244a5e8aa4e537bd38aeae4b073aa90602090a180f35b8251638dfc202b60e01b8152fd5b509190346102065781600319360112610206578051908260065461069c81610c24565b8085529060019081811690811561031957506001146106e6575050829003601f01601f191682019267ffffffffffffffff8411838510176102ac57508291826102a8925282610b7b565b6006865290915084907ff652222313e28459528d920b65115c16c04f3efc82aaedc97be59f3f377c0d3f5b838310610728575050602091508301013880610277565b81816020929493945483858a0101520191019190610711565b50503461020657816003193601126102065760209060ff60055460a81c169051908152f35b50503461020657606036600319011261020657602090610234610787610bc4565b61078f610bdf565b6044359161079e833383610d44565b610c5e565b5050346102065781600319360112610206576020906002549051908152f35b50346101b957816003193601126101b9576107db610bc4565b602435903315610854576001600160a01b031691821561083d57508083602095338152600187528181208582528752205582519081527f8c5be1e5ebec7d5bd14f71427d1e84f3dd0314c0f7b2291e5b200ac8c7c3b925843392a35160018152f35b8351634a1406b160e11b8152908101859052602490fd5b835163e602df0560e01b8152808401869052602490fd5b509190346102065781600319360112610206578051908260035461088e81610c24565b8085529060019081811690811561031957506001146108d8575050829003601f01601f191682019267ffffffffffffffff8411838510176102ac57508291826102a8925282610b7b565b6003865290915084907fc2575a0e9e593c00f959f8c92f12db2869c3395a3b0502d05e2516446f71f85b5b83831061091a575050602091508301013880610277565b81816020929493945483858a0101520191019190610903565b505034610206578160031936011261020657602090516001600160a01b037f0000000000000000000000000000000000000000000000000000000000000000168152f35b5082903461020657602092836003193601126101b95781359367ffffffffffffffff92838611610b735736602387011215610b7357850135928311610b7757602436818588010111610b73576109cb610bf5565b6109d6600654610c24565b601f8111610b11575b5084601f8511600114610a675781869786809481947f929ee81da383f5dfeeb0f35f1406912160010035665b2e977e1fd973631ed4099a92610a5a575b50508360011b906000198560031b1c1916176006555b855196858896875286015201848401378181018301869052601f01601f19168101030190a180f35b830101359050828b610a1c565b60068652957ff652222313e28459528d920b65115c16c04f3efc82aaedc97be59f3f377c0d3f601f198616875b818110610af85750918693917f929ee81da383f5dfeeb0f35f1406912160010035665b2e977e1fd973631ed409989985809510610adc575b5050600183811b01600655610a32565b8201830135600019600386901b60f8161c191690558980610acc565b838a018501358355988501986001909201918501610a94565b600686527ff652222313e28459528d920b65115c16c04f3efc82aaedc97be59f3f377c0d3f601f860160051c810191848710610b69575b601f0160051c01905b818110610b5e57506109df565b868155600101610b51565b9091508190610b48565b8480fd5b8380fd5b6020808252825181830181905290939260005b828110610bb057505060409293506000838284010152601f8019910116010190565b818101860151848201604001528501610b8e565b600435906001600160a01b0382168203610bda57565b600080fd5b602435906001600160a01b0382168203610bda57565b6001600160a01b0360055460081c163303610c0c57565b60405163118cdaa760e01b8152336004820152602490fd5b90600182811c92168015610c54575b6020831014610c3e57565b634e487b7160e01b600052602260045260246000fd5b91607f1691610c33565b916001600160a01b03808416928315610d2b5716928315610d1257610c81610ebf565b60009083825281602052604082205490838210610ce0575091604082827fddf252ad1be2c89b69c2b068fc378daa952ba7f163c4a11628f55a4df523b3ef958760209652828652038282205586815220818154019055604051908152a3565b60405163391434e360e21b81526001600160a01b03919091166004820152602481019190915260448101839052606490fd5b60405163ec442f0560e01b815260006004820152602490fd5b604051634b637e8f60e11b815260006004820152602490fd5b916001600160a01b038093169160009383855260016020526040938486209183169182875260205284862054926000198410610d84575b50505050505050565b848410610de857508015610dd0578115610db857855260016020528385209085526020520391205538808080808080610d7b565b8451634a1406b160e11b815260048101879052602490fd5b845163e602df0560e01b815260048101879052602490fd5b8551637dc7a0d960e11b81526001600160a01b039190911660048201526024810184905260448101859052606490fd5b906001600160a01b038216908115610d2b57610e32610ebf565b60009282845283602052604084205490828210610e8d5750817fddf252ad1be2c89b69c2b068fc378daa952ba7f163c4a11628f55a4df523b3ef926020928587528684520360408620558060025403600255604051908152a3565b60405163391434e360e21b81526001600160a01b03919091166004820152602481019190915260448101829052606490fd5b60ff60055416610ecb57565b60405163d93c066560e01b8152600490fdfea26469706673582212207b537e553004b9d1a91dd26330386cb6130dec9e086f729a5cd1ed7bd3baccb164736f6c63430008140033",
  "linkReferences": {},
  "deployedLinkReferences": {}
}