{
  "_format": "hh-sol-artifact-1",
  "contractName": "AgentFactory",
  "sourceName": "contracts/AgentFactory.sol",
  "abi": [
    {
      "inputs": [
        {
          "internalType": "uint256",
          "name": "_deploymentFee",
          "type": "uint256"
        }
      ],
      "stateMutability": "nonpayable",
      "type": "constructor"
    },
    {
      "inputs": [],
      "name": "DescriptionTooLong",
      "type": "error"
    },
    {
      "inputs": [],
      "name": "EnforcedPause",
      "type": "error"
    },
    {
      "inputs": [],
      "name": "ExpectedPause",
      "type": "error"
    },
    {
      "inputs": [],
      "name": "FailedDeployment",
      "type": "error"
    },
    {
      "inputs": [
        {
          "internalType": "uint256",
          "name": "balance",
          "type": "uint256"
        },
        {
          "internalType": "uint256",
          "name": "needed",
          "type": "uint256"
        }
      ],
      "name": "InsufficientBalance",
      "type": "error"
    },
    {
      "inputs": [],
      "name": "InvalidFee",
      "type": "error"
    },
    {
      "inputs": [],
      "name": "NameEmpty",
      "type": "error"
    },
    {
      "inputs": [],
      "name": "NameTaken",
      "type": "error"
    },
    {
      "inputs": [],
      "name": "NameTooLong",
      "type": "error"
    },
    {
      "inputs": [
        {
          "internalType": "address",
          "name": "owner",
          "type": "address"
        }
      ],
      "name": "OwnableInvalidOwner",
      "type": "error"
    },
    {
      "inputs": [
        {
          "internalType": "address",
          "name": "account",
          "type": "address"
        }
      ],
      "name": "OwnableUnauthorizedAccount",
      "type": "error"
    },
    {
      "inputs": [],
      "name": "ReentrancyGuardReentrantCall",
      "type": "error"
    },
    {
      "inputs": [],
      "name": "Unauthorized",
      "type": "error"
    },
    {
      "anonymous": false,
      "inputs": [
        {
          "indexed": true,
          "internalType": "address",
          "name": "agent",
          "type": "address"
        },
        {
          "indexed": true,
          "internalType": "address",
          "name": "owner",
          "type": "address"
        },
        {
          "indexed": false,
          "internalType": "string",
          "name": "name",
          "type": "string"
        }
      ],
      "name": "AgentDeployed",
      "type": "event"
    },
    {
      "anonymous": false,
      "inputs": [
        {
          "indexed": true,
          "internalType": "address",
          "name": "agent",
          "type": "address"
        },
        {
          "indexed": false,
          "internalType": "bool",
          "name": "isActive",
          "type": "bool"
        }
      ],
      "name": "AgentStatusChanged",
      "type": "event"
    },
    {
      "anonymous": false,
      "inputs": [
        {
          "indexed": false,
          "internalType": "uint256",
          "name": "newFee",
          "type": "uint256"
        }
      ],
      "name": "FeeUpdated",
      "type": "event"
    },
    {
      "anonymous": false,
      "inputs": [
        {
          "indexed": true,
          "internalType": "address",
          "name": "previousOwner",
          "type": "address"
        },
        {
          "indexed": true,
          "internalType": "address",
          "name": "newOwner",
          "type": "address"
        }
      ],
      "name": "OwnershipTransferred",
      "type": "event"
    },
    {
      "anonymous": false,
      "inputs": [
        {
          "indexed": false,
          "internalType": "address",
          "name": "account",
          "type": "address"
        }
      ],
      "name": "Paused",
      "type": "event"
    },
    {
      "anonymous": false,
      "inputs": [
        {
          "indexed": false,
          "internalType": "address",
          "name": "account",
          "type": "address"
        }
      ],
      "name": "Unpaused",
      "type": "event"
    },
    {
      "inputs": [
        {
          "internalType": "string",
          "name": "",
          "type": "string"
        }
      ],
      "name": "agentByName",
      "outputs": [
        {
          "internalType": "address",
          "name": "",
          "type": "address"
        }
      ],
      "stateMutability": "view",
      "type": "function"
    },
    {
      "inputs": [],
      "name": "agentImplementation",
      "outputs": [
        {
          "internalType": "address",
          "name": "",
          "type": "address"
        }
      ],
      "stateMutability": "view",
      "type": "function"
    },
    {
      "inputs": [
        {
          "internalType": "address",
          "name": "",
          "type": "address"
        }
      ],
      "name": "agentInfo",
      "outputs": [
        {
          "internalType": "address",
          "name": "owner",
          "type": "address"
        },
        {
          "internalType": "string",
          "name": "name",
          "type": "string"
        },
        {
          "internalType": "uint256",
          "name": "deployedAt",
          "type": "uint256"
        },
        {
          "internalType": "bool",
          "name": "isActive",
          "type": "bool"
        }
      ],
      "stateMutability": "view",
      "type": "function"
    },
    {
      "inputs": [
        {
          "internalType": "address",
          "name": "",
          "type": "address"
        },
        {
          "internalType": "uint256",
          "name": "",
          "type": "uint256"
        }
      ],
      "name": "agentsByOwner",
      "outputs": [
        {
          "internalType": "address",
          "name": "",
          "type": "address"
        }
      ],
      "stateMutability": "view",
      "type": "function"
    },
    {
      "inputs": [
        {
          "internalType": "string",
          "name": "name",
          "type": "string"
        },
        {
          "internalType": "string",
          "name": "description",
          "type": "string"
        }
      ],
      "name": "deployAgent",
      "outputs": [
        {
          "internalType": "address",
          "name": "agentAddress",
          "type": "address"
        }
      ],
      "stateMutability": "payable",
      "type": "function"
    },
    {
      "inputs": [
        {
          "internalType": "string",
          "name": "name",
          "type": "string"
        },
        {
          "internalType": "string",
          "name": "description",
          "type": "string"
        },
        {
          "internalType": "uint256",
          "name": "initialFunding",
          "type": "uint256"
        }
      ],
      "name": "deployAgentWithFunding",
      "outputs": [
        {
          "internalType": "address",
          "name": "agentAddress",
          "type": "address"
        }
      ],
      "stateMutability": "payable",
      "type": "function"
    },
    {
      "inputs": [],
      "name": "deploymentFee",
      "outputs": [
        {
          "internalType": "uint256",
          "name": "",
          "type": "uint256"
        }
      ],
      "stateMutability": "view",
      "type": "function"
    },
    {
      "inputs": [],
      "name": "erc20Factory",
      "outputs": [
        {
          "internalType": "address",
          "name": "",
          "type": "address"
        }
      ],
      "stateMutability": "view",
      "type": "function"
    },
    {
      "inputs": [],
      "name": "erc721Factory",
      "outputs": [
        {
          "internalType": "address",
          "name": "",
          "type": "address"
        }
      ],
      "stateMutability": "view",
      "type": "function"
    },
    {
      "inputs": [
        {
          "internalType": "string",
          "name": "name",
          "type": "string"
        }
      ],
      "name": "getAgentByName",
      "outputs": [
        {
          "internalType": "address",
          "name": "",
          "type": "address"
        }
      ],
      "stateMutability": "view",
      "type": "function"
    },
    {
      "inputs": [
        {
          "internalType": "address",
          "name": "owner",
          "type": "address"
        }
      ],
      "name": "getAgentsByOwner",
      "outputs": [
        {
          "internalType": "address[]",
          "name": "",
          "type": "address[]"
        }
      ],
      "stateMutability": "view",
      "type": "function"
    },
    {
      "inputs": [],
      "name": "getDeploymentFee",
      "outputs": [
        {
          "internalType": "uint256",
          "name": "",
          "type": "uint256"
        }
      ],
      "stateMutability": "view",
      "type": "function"
    },
    {
      "inputs": [],
      "name": "getImplementationAddresses",
      "outputs": [
        {
          "internalType": "address",
          "name": "implementation",
          "type": "address"
        },
        {
          "internalType": "address",
          "name": "tokenFactory",
          "type": "address"
        },
        {
          "internalType": "address",
          "name": "nftFactory",
          "type": "address"
        }
      ],
      "stateMutability": "view",
      "type": "function"
    },
    {
      "inputs": [
        {
          "internalType": "address",
          "name": "agent",
          "type": "address"
        }
      ],
      "name": "isAgent",
      "outputs": [
        {
          "internalType": "bool",
          "name": "",
          "type": "bool"
        }
      ],
      "stateMutability": "view",
      "type": "function"
    },
    {
      "inputs": [
        {
          "internalType": "string",
          "name": "name",
          "type": "string"
        }
      ],
      "name": "isNameAvailable",
      "outputs": [
        {
          "internalType": "bool",
          "name": "",
          "type": "bool"
        }
      ],
      "stateMutability": "view",
      "type": "function"
    },
    {
      "inputs": [
        {
          "internalType": "address",
          "name": "",
          "type": "address"
        }
      ],
      "name": "isValidAgent",
      "outputs": [
        {
          "internalType": "bool",
          "name": "",
          "type": "bool"
        }
      ],
      "stateMutability": "view",
      "type": "function"
    },
    {
      "inputs": [],
      "name": "owner",
      "outputs": [
        {
          "internalType": "address",
          "name": "",
          "type": "address"
        }
      ],
      "stateMutability": "view",
      "type": "function"
    },
    {
      "inputs": [],
      "name": "pauseDeployments",
      "outputs": [],
      "stateMutability": "nonpayable",
      "type": "function"
    },
    {
      "inputs": [],
      "name": "paused",
      "outputs": [
        {
          "internalType": "bool",
          "name": "",
          "type": "bool"
        }
      ],
      "stateMutability": "view",
      "type": "function"
    },
    {
      "inputs": [],
      "name": "renounceOwnership",
      "outputs": [],
      "stateMutability": "nonpayable",
      "type": "function"
    },
    {
      "inputs": [
        {
          "internalType": "address",
          "name": "agent",
          "type": "address"
        },
        {
          "internalType": "bool",
          "name": "status",
          "type": "bool"
        }
      ],
      "name": "setAgentStatus",
      "outputs": [],
      "stateMutability": "nonpayable",
      "type": "function"
    },
    {
      "inputs": [
        {
          "internalType": "uint256",
          "name": "newFee",
          "type": "uint256"
        }
      ],
      "name": "setDeploymentFee",
      "outputs": [],
      "stateMutability": "nonpayable",
      "type": "function"
    },
    {
      "inputs": [],
      "name": "totalAgentsDeployed",
      "outputs": [
        {
          "internalType": "uint256",
          "name": "",
          "type": "uint256"
        }
      ],
      "stateMutability": "view",
      "type": "function"
    },
    {
      "inputs": [
        {
          "internalType": "address",
          "name": "newOwner",
          "type": "address"
        }
      ],
      "name": "transferOwnership",
      "outputs": [],
      "stateMutability": "nonpayable",
      "type": "function"
    },
    {
      "inputs": [],
      "name": "unpauseDeployments",
      "outputs": [],
      "stateMutability": "nonpayable",
      "type": "function"
    },
    {
      "inputs": [],
      "name": "withdrawFees",
      "outputs": [],
      "stateMutability": "nonpayable",
      "type": "function"
    }
  ],
  "bytecode": "0x60e034620001eb57601f62008dd838819003918201601f19168301926001600160401b0392909183851183861017620001f0578160209284926040978852833981010312620001eb5751903315620001d35760008054336001600160a01b031982168117835585516001600160a01b0395939493909290919086167f8be0079c531659141344cd1fd0a4f28419497f9722a3daafe3b4186f6b6457e08680a3600180556004556128f68082019082821084831117620001bf57908291620064e28339039083f08015620001b55783166080528351611cc78082019082821084831117620001bf57908291620016e18339039083f08015620001b557831660a05283519061313a80830191821183831017620001a157908291620033a88339039082f09081156200019657501660c052516114da908162000207823960805181818161044e0152818161073501528181610a2f0152610a76015260a051818181610286015281816104bc015281816107a10152610a9b015260c051818181610499015281816106050152818161077f0152610ac20152f35b8351903d90823e3d90fd5b634e487b7160e01b84526041600452602484fd5b84513d84823e3d90fd5b634e487b7160e01b85526041600452602485fd5b8251631e4fbdf760e01b815260006004820152602490fd5b600080fd5b634e487b7160e01b600052604160045260246000fdfe6080604081815260048036101561001557600080fd5b600092833560e01c908163110a50f414610e80575080631ab6f88814610dd65780631ffbb06414610d9a5780633b1d48ff14610d7b5780633d11c79614610d1257806346c549cc14610341578063476343ee14610c8a5780635c975abb14610c6657806362c885ee14610b4357806366f1976d14610ae85780636f1fadc214610a53578063704b0ec414610a0f578063715018a6146109a9578063768eb96f146109505780638cf44d21146108f45780638da5cb5b146108ce5780638fe549be14610684578063b0034f0f14610629578063b43ced0f146105e5578063b4ad6552146103ab578063d002462b1461035e578063f2cff57f14610341578063f2fde38b146102ae578063f4c3066f14610266578063f5c5d5c0146101ec5763f95b620d1461014157600080fd5b346101e857816003193601126101e857610159610eba565b91602435801515928382036101e4576001600160a01b03809516948587526008602052838720541633036101d75750916020916101cf7f87a2f5d6264ebbda5bf1278472c7cd45819bf76a99da8075ea9768d2e827050f94868852600885526003838920019060ff801983541691151516179055565b51908152a280f35b82516282b42960e81b8152fd5b8580fd5b8280fd5b5091346102635760203660031901126102635782359067ffffffffffffffff821161026357366023830112156102635750610250602061023e81958460246001600160a01b0396369301359101610ff6565b81855193828580945193849201610f5b565b8101600781520301902054169051908152f35b80fd5b5050346102aa57816003193601126102aa57602090516001600160a01b037f0000000000000000000000000000000000000000000000000000000000000000168152f35b5080fd5b50346101e85760203660031901126101e8576102c8610eba565b906102d161102d565b6001600160a01b0380921692831561032b57505082548273ffffffffffffffffffffffffffffffffffffffff198216178455167f8be0079c531659141344cd1fd0a4f28419497f9722a3daafe3b4186f6b6457e08380a380f35b51631e4fbdf760e01b8152908101849052602490fd5b50346101e857826003193601126101e85760209250549051908152f35b5090346101e85760203660031901126101e857816020917f8c4d35e54a3f2ef1134138fd8ea3daee6a3c89e10d2665996babdf70261e2c76933580926103a261102d565b5551908152a180f35b509190806003193601126102aa5767ffffffffffffffff9280358481116105e1576103d99036908301610fac565b90946024359081116105dd576103f29036908401610fac565b90946103fc61116e565b610404611150565b835434106105cd5782156105bd57603283116105ad576101f4821161059d5784519183888437838301600781528360206001600160a01b0395869303019020541661058d576104727f00000000000000000000000000000000000000000000000000000000000000006110e8565b92831696873b156101e857918581926104e58b958a5196879485946306d876b560e51b86527f0000000000000000000000000000000000000000000000000000000000000000938c7f0000000000000000000000000000000000000000000000000000000000000000943394890161107a565b0381838b5af19081156105825750876105308560209a8a967f947fc2acd4de1bbd61a5dafc0a99eb9a6be29abca00ddcce899b35961bc932f59661054396610573575b50339061119e565b86519182918a835233968b840191611059565b0390a35480341161055a575b506001805551908152f35b61056761056d91346110c5565b33611418565b3861054f565b61057c90610f0f565b38610528565b8651903d90823e3d90fd5b8551639e4b268560e01b81528590fd5b8451630d7cfc5960e41b81528490fd5b845163680b6caf60e01b81528490fd5b8451631ff3ed9d60e01b81528490fd5b84516358d620b360e01b81528490fd5b8480fd5b8380fd5b5050346102aa57816003193601126102aa57602090516001600160a01b037f0000000000000000000000000000000000000000000000000000000000000000168152f35b5091346102635760203660031901126102635782359067ffffffffffffffff82116102635750602061066781946001600160a01b0393369101610fac565b919082855193849283378101600781520301902054169051908152f35b509060603660031901126101e85767ffffffffffffffff9180358381116105dd576106b29036908301610fac565b90936024359081116101e4576106cb9036908401610fac565b919094604435966106da61116e565b6106e2611150565b6106ed888654611191565b34106108be5782156108ae576032831161089e576101f4841161088e5785519383838637838501600781528560206001600160a01b0397889303019020541661087e576107597f00000000000000000000000000000000000000000000000000000000000000006110e8565b94851697883b156101e8579180916107cc93895194859283926306d876b560e51b84528b7f0000000000000000000000000000000000000000000000000000000000000000927f0000000000000000000000000000000000000000000000000000000000000000928c8c3394890161107a565b0381838c5af190811561087357507f947fc2acd4de1bbd61a5dafc0a99eb9a6be29abca00ddcce899b35961bc932f561083060209a96946108429896948b94610864575b5061081d8582338961119e565b89519182918d835233968e840191611059565b0390a38280610854575b505054611191565b80341161055a57506001805551908152f35b61085d91611418565b388261083a565b61086d90610f0f565b38610810565b8751903d90823e3d90fd5b8651639e4b268560e01b81528690fd5b8551630d7cfc5960e41b81528590fd5b855163680b6caf60e01b81528590fd5b8551631ff3ed9d60e01b81528590fd5b85516358d620b360e01b81528590fd5b5050346102aa57816003193601126102aa576001600160a01b0360209254169051908152f35b5091346102635760203660031901126102635782359067ffffffffffffffff82116102635750602061093281946001600160a01b0393369101610fac565b91908285519384928337810160078152030190205416159051908152f35b5050346102aa57806003193601126102aa5761096a610eba565b602435926001600160a01b0380921681526006602052828120908154851015610263575060209361099a91610f7e565b92905490519260031b1c168152f35b83346102635780600319360112610263576109c261102d565b806001600160a01b03815473ffffffffffffffffffffffffffffffffffffffff1981168355167f8be0079c531659141344cd1fd0a4f28419497f9722a3daafe3b4186f6b6457e08280a380f35b5050346102aa57816003193601126102aa57602090516001600160a01b037f0000000000000000000000000000000000000000000000000000000000000000168152f35b5050346102aa57816003193601126102aa578060609151906001600160a01b03807f0000000000000000000000000000000000000000000000000000000000000000168352807f00000000000000000000000000000000000000000000000000000000000000001660208401527f00000000000000000000000000000000000000000000000000000000000000001690820152f35b5050346102aa57816003193601126102aa5760207f62e78cea01bee320cd4e420270b5ea74000d11b0c9f74754ebdbfc544b05a25891610b2661102d565b610b2e611150565b600160ff19600254161760025551338152a180f35b82843461026357602091826003193601126102aa576001600160a01b039182610b6a610eba565b16815260088452818120928354169160019384810191805192878597825496610b9288610ed5565b93848852838801988381169081600014610c445750600114610c09575b5050505050610bc28360a0970384610f39565b610bf160ff60036002850154940154169360808351998a98895288015251809581608089015288880190610f5b565b84015215156060830152601f01601f19168101030190f35b908094939a50528883205b828410610c3157505050830190950194610bc28760a0858b610baf565b80548785018b0152928901928101610c14565b60ff19168a525050505090151560051b8401019550610bc28760a0858b610baf565b5050346102aa57816003193601126102aa5760209060ff6002541690519015158152f35b50346101e857826003193601126101e857610ca361102d565b610cab61116e565b47918215610ccf5783610cc8846001600160a01b03835416611418565b6001805580f35b906020606492519162461bcd60e51b8352820152600760248201527f4e6f2066656573000000000000000000000000000000000000000000000000006044820152fd5b50346101e857826003193601126101e857610d2b61102d565b6002549060ff821615610d6d575060ff1916600255513381527f5db9ee0a495bf2e6ff9c91a7834c1ba4fdd244a5e8aa4e537bd38aeae4b073aa90602090a180f35b8251638dfc202b60e01b8152fd5b5050346102aa57816003193601126102aa576020906003549051908152f35b5050346102aa5760203660031901126102aa5760ff816020936001600160a01b03610dc3610eba565b1681526005855220541690519015158152f35b5050346102aa576020806003193601126101e8576001600160a01b039283610dfc610eba565b1681526006825282812091835190818185549182815201908195855282852090855b818110610e6a5750505082610e34910383610f39565b8451948186019282875251809352850193925b828110610e545785850386f35b8351871685529381019392810192600101610e47565b82548a1684529284019260019283019201610e1e565b849084346101e85760203660031901126101e85760ff906020936001600160a01b03610eaa610eba565b1681526005855220541615158152f35b600435906001600160a01b0382168203610ed057565b600080fd5b90600182811c92168015610f05575b6020831014610eef57565b634e487b7160e01b600052602260045260246000fd5b91607f1691610ee4565b67ffffffffffffffff8111610f2357604052565b634e487b7160e01b600052604160045260246000fd5b90601f8019910116810190811067ffffffffffffffff821117610f2357604052565b60005b838110610f6e5750506000910152565b8181015183820152602001610f5e565b8054821015610f965760005260206000200190600090565b634e487b7160e01b600052603260045260246000fd5b9181601f84011215610ed05782359167ffffffffffffffff8311610ed05760208381860195010111610ed057565b67ffffffffffffffff8111610f2357601f01601f191660200190565b92919261100282610fda565b916110106040519384610f39565b829481845281830111610ed0578281602093846000960137010152565b6001600160a01b0360005416330361104157565b60405163118cdaa760e01b8152336004820152602490fd5b908060209392818452848401376000828201840152601f01601f1916010190565b9593611098608096999894926110a69460a08a5260a08a0191611059565b918783036020890152611059565b956001600160a01b039283809216604087015216606085015216910152565b919082039182116110d257565b634e487b7160e01b600052601160045260246000fd5b6e5af43d82803e903d91602b57fd5bf390763d602d80600a3d3981f3363d3d373d3d3d363d7300000062ffffff8260881c161760005260781b17602052603760096000f0906001600160a01b0382161561113e57565b60405163b06ebf3d60e01b8152600490fd5b60ff6002541661115c57565b60405163d93c066560e01b8152600490fd5b60026001541461117f576002600155565b604051633ee5aeb560e01b8152600490fd5b919082018092116110d257565b9392916003918254600019908181146110d257600180910185556001600160a01b038098169360009085825260209960058b52806040968785208660ff19825416179055169586845260068c52808420805490680100000000000000008210156114045790611211918782018155610f7e565b8154908b1b90848b831b921b191617905580518a8482378c818c810160078152030190209273ffffffffffffffffffffffffffffffffffffffff1993898582541617905581519a60808c019867ffffffffffffffff998d81108b8211176113f0578f9997959385938f9c9a98969361129093600895528d523691610ff6565b98808b01998a526060838c019b428d52019b878d5286525283209a5116908a5416178955818901945180519485116113dc578b6112cd8754610ed5565b601f8111611394575b50508b91601f861160011461132e576113219b9c509185949391859395611323575b50501b92871b1c19161790555b51600284015551151591019060ff801983541691151516179055565b565b0151935038806112f8565b9294939190601f198516809d88865280862095915b821061137c575050846113219c9d10611365575b50505050811b019055611305565b01519060f8848a1b161c1916905538808080611357565b8284015186559487019492830192908101908e611343565b87845281842090601f880160051c82019288106113d2575b601f0160051c019084905b8281106113c757508d91506112d6565b8481550184906113b7565b90915081906113ac565b634e487b7160e01b82526041600452602482fd5b634e487b7160e01b88526041600452602488fd5b634e487b7160e01b86526041600452602486fd5b60008080936001600160a01b038294165af13d1561149f573d61143a81610fda565b906114486040519283610f39565b8152600060203d92013e5b1561145a57565b60405162461bcd60e51b815260206004820152600f60248201527f5472616e73666572206661696c656400000000000000000000000000000000006044820152606490fd5b61145356fea2646970667358221220bed52385b1d5e61f4406439a9108e8f0b6cf61eee0a1791dc98c3e83aa6195c464736f6c634300081400336080806040523461001b576001600055611ca690816100218239f35b600080fdfe6080604090808252600491823610156200001857600080fd5b600091823560e01c9081631d66d690146200060e575080634d123b8614620005cf57806383fd73c314620005cf578063c18809601462000523578063d5c712751462000468578063d782d6471462000409578063d80d03a214620003a75763fb30e3b6146200008657600080fd5b34620003a35760a0366003190112620003a35767ffffffffffffffff9280358481116200039f57620000bc9036908301620006bd565b93909460249485358281116200039f57620000db9036908601620006bd565b6044929192359360643560ff81168091036200039b57608435956001600160a01b039283881680980362000397576002895414620003875760028955851515806200037d575b8062000373575b8062000367575b806200035d575b156200031b578a519261156180850192831185841017620003095790620001868f62000176908796959462000710883960c085528a60c0860191620006ee565b8381036020850152888b620006ee565b928d830152606082015288608082015260a033910152039087f08015620002ff57811698600197885491680100000000000000009283811015620002ed578a8101808c55811015620002db577fb10e2d527612073b26eecdfd717e6a320cf44b4afac2b0732d9fcbe2b7fa0cf6018c7fffffffffffffffffffffffff00000000000000000000000000000000000000008254161790558b895260026020528a89208a60ff1982541617905533895260036020528a892091825493841015620002ca5750507fd911716c3fddc130bd228e9fc8082f495d0afacfab26b5e436e8c1a083af94279360209c936200028784620002c0948f99968e0181556200068e565b819291549060031b9189831b921b1916179055620002b08b519485948d86528d860191620006ee565b908382038e8501523397620006ee565b0390a45551908152f35b634e487b7160e01b8a526041905288fd5b50634e487b7160e01b89526032825288fd5b50634e487b7160e01b89526041825288fd5b88513d88823e3d90fd5b634e487b7160e01b8b5260418c528d8bfd5b8a5162461bcd60e51b81526020818c0152600e818e01527f496e76616c696420706172616d730000000000000000000000000000000000006044820152606490fd5b5087151562000136565b5060128311156200012f565b5081151562000128565b5084151562000121565b8a51633ee5aeb560e01b81528a90fd5b8880fd5b8680fd5b8380fd5b5080fd5b5034620003a35780600319360112620003a357620003c46200062c565b602435926001600160a01b0380921681526003602052828120908154851015620004065750602093620003f7916200068e565b90549060031b1c169051908152f35b80fd5b5082346200046457602036600319011262000464573560015481101562000464576001600160a01b03906001602094527fb10e2d527612073b26eecdfd717e6a320cf44b4afac2b0732d9fcbe2b7fa0cf60154169051908152f35b8280fd5b5034620003a3576020908160031936011262000464576001600160a01b039182620004926200062c565b16845260038152818420908251809482845492838152019387528287209287915b83831062000509575050505050829003601f01601f191682019267ffffffffffffffff841183851017620004f65750829182620004f292528262000648565b0390f35b634e487b7160e01b815260418552602490fd5b8454811686529481019460019485019490920191620004b3565b5034620003a35781600319360112620003a357805190816001908154918282526020809201928187527fb10e2d527612073b26eecdfd717e6a320cf44b4afac2b0732d9fcbe2b7fa0cf69287905b828210620005b0575050505050829003601f01601f191682019267ffffffffffffffff841183851017620004f65750829182620004f292528262000648565b84546001600160a01b0316865294850194938301939083019062000571565b5034620003a3576020366003190112620003a35760ff816020936001600160a01b03620005fb6200062c565b1681526002855220541690519015158152f35b839034620003a35781600319360112620003a3576020906001548152f35b600435906001600160a01b03821682036200064357565b600080fd5b6020908160408183019282815285518094520193019160005b82811062000670575050505090565b83516001600160a01b03168552938101939281019260010162000661565b8054821015620006a75760005260206000200190600090565b634e487b7160e01b600052603260045260246000fd5b9181601f84011215620006435782359167ffffffffffffffff83116200064357602083818601950101116200064357565b908060209392818452848401376000828201840152601f01601f191601019056fe604060a08152346200055f5762001561803803806200001e8162000564565b928339810160c0828203126200055f5781516001600160401b0392908381116200055f5782620000509183016200058a565b9260209283830151908282116200055f576200006e9184016200058a565b91858101519260608201519260ff8416968785036200055f57620000a360a06200009b60808701620005fc565b9501620005fc565b91815181811162000450576003908154906001948583811c9316801562000554575b8c8410146200053e5781908c601f94858111620004e5575b50508c90848311600114620004725760009262000466575b505060001982851b1c191690851b1782555b8551928311620004505760049586548581811c9116801562000445575b8c821014620004305780838d9211620003e3575b50508a91841160011462000376579383949184926000956200036a575b50501b92600019911b1c19161782555b6001600160a01b038381169790939088156200035357600554948a51908a818860081c167f8be0079c531659141344cd1fd0a4f28419497f9722a3daafe3b4186f6b6457e0600080a3841615620003205750861515908162000313575b5015620002df57610100600160b01b0319841660089190911b610100600160a81b03161760a885901b60ff60a81b161760055560805260ff62000210620002098562000611565b8662000639565b9216620002d15760025490828201809211620002bc57506200029f928660007fddf252ad1be2c89b69c2b068fc378daa952ba7f163c4a11628f55a4df523b3ef887fb9144c96c86541f6fa89c9f2f02495cccf4b08cd6643e26d34ee00aa586558a899989662000298966002558484528382528c84208181540190558c51908152a362000611565b9062000639565b8451908152a251610f1390816200064e8239608051816109530152f35b601190634e487b7160e01b6000525260246000fd5b865163d93c066560e01b8152fd5b885162461bcd60e51b8152808401889052600e60248201526d496e76616c696420706172616d7360901b6044820152606490fd5b60129150111538620001c2565b62461bcd60e51b8152848101899052600f60248201526e496e76616c6964206164647265737360881b6044820152606490fd5b8951631e4fbdf760e01b8152600081860152602490fd5b01519350388062000155565b9190601f1984169287600052848c600020948d6000905b89838310620003ca5750505010620003af575b50505050811b01825562000165565b01519060f884600019921b161c1916905538808080620003a0565b8686015189559097019694850194889350018e6200038d565b8860005283826000209181880160051c830193881062000426575b0160051c019086905b8281106200041957508c915062000138565b6000815501869062000407565b92508192620003fe565b602288634e487b7160e01b6000525260246000fd5b90607f169062000124565b634e487b7160e01b600052604160045260246000fd5b015190503880620000f5565b879350908d91601f1984168760005283600020936000905b828210620004c35750508411620004aa575b505050811b01825562000107565b015160001983871b60f8161c191690553880806200049c565b91929395968291958786015181550195019301908f918a96959493926200048a565b909192508560005284826000209181860160051c830193861062000534575b918991869594930160051c01915b8281106200052457508e9150620000dd565b6000815585945089910162000512565b9250819262000504565b634e487b7160e01b600052602260045260246000fd5b92607f1692620000c5565b600080fd5b6040519190601f01601f191682016001600160401b038111838210176200045057604052565b919080601f840112156200055f5782516001600160401b0381116200045057602090620005c0601f8201601f1916830162000564565b928184528282870101116200055f5760005b818110620005e857508260009394955001015290565b8581018301518482018401528201620005d2565b51906001600160a01b03821682036200055f57565b60ff16604d81116200062357600a0a90565b634e487b7160e01b600052601160045260246000fd5b81810292918115918404141715620006235756fe6040608081526004908136101561001557600080fd5b600091823560e01c8062d5da021461097757806302d05d3f1461093357806306fdde031461086b578063095ea7b3146107c257806318160ddd146107a357806323b872dd14610766578063313ce5671461074157806338abc4bc146106795780633f4ba83a1461061057806340c10f19146104d757806342966c68146104b95780635c975abb1461049557806370a082311461045f578063715018a6146103f357806379cc6790146103bd5780638456cb59146103625780638da5cb5b1461033757806395d89b411461023b578063a9059cbb1461020a578063dd62ed3e146101bd5763f2fde38b1461010757600080fd5b346101b95760203660031901126101b957610120610bc4565b610128610bf5565b6001600160a01b03918282169384156101a357505074ffffffffffffffffffffffffffffffffffffffff006005549160081b1674ffffffffffffffffffffffffffffffffffffffff001982161760055560081c167f8be0079c531659141344cd1fd0a4f28419497f9722a3daafe3b4186f6b6457e08380a380f35b51631e4fbdf760e01b8152908101859052602490fd5b8280fd5b505034610206578060031936011261020657806020926101db610bc4565b6101e3610bdf565b6001600160a01b0391821683526001865283832091168252845220549051908152f35b5080fd5b50503461020657806003193601126102065760209061023461022a610bc4565b6024359033610c5e565b5160018152f35b5091903461020657816003193601126102065780519082845461025d81610c24565b8085529060019081811690811561031957506001146102bf575b5050829003601f01601f191682019267ffffffffffffffff8411838510176102ac57508291826102a8925282610b7b565b0390f35b634e487b7160e01b815260418552602490fd5b86865290915084907f8a35acfbc15ff81a39ae7d344fd709f28e8600b4aa8c65c6b64bfe7fe36bd19b5b838310610300575050602091508301013880610277565b81816020929493945483858a01015201910191906102e9565b9150506020925060ff191682850152151560051b8301013880610277565b5050346102065781600319360112610206576020906001600160a01b0360055460081c169051908152f35b50503461020657816003193601126102065760207f62e78cea01bee320cd4e420270b5ea74000d11b0c9f74754ebdbfc544b05a258916103a0610bf5565b6103a8610ebf565b600160ff19600554161760055551338152a180f35b505034610206573660031901126103f0576103ed6103d9610bc4565b602435906103e8823383610d44565b610e18565b80f35b80fd5b83346103f057806003193601126103f05761040c610bf5565b806001600160a01b0360055474ffffffffffffffffffffffffffffffffffffffff0019811660055560081c167f8be0079c531659141344cd1fd0a4f28419497f9722a3daafe3b4186f6b6457e08280a380f35b50503461020657602036600319011261020657806020926001600160a01b03610486610bc4565b16815280845220549051908152f35b50503461020657816003193601126102065760209060ff6005541690519015158152f35b838234610206576020366003190112610206576103ed903533610e18565b5090346101b957806003193601126101b9576104f1610bc4565b906001600160a01b0360243592610506610bf5565b16928315801580610607575b156105c4576105af57610523610ebf565b6002549083820180921161059c5750916020917fb9144c96c86541f6fa89c9f2f02495cccf4b08cd6643e26d34ee00aa586558a89360025584865285835280862082815401905584867fddf252ad1be2c89b69c2b068fc378daa952ba7f163c4a11628f55a4df523b3ef858451868152a351908152a280f35b634e487b7160e01b865260119052602485fd5b84602492519163ec442f0560e01b8352820152fd5b506020606492519162461bcd60e51b8352820152600e60248201527f496e76616c696420706172616d730000000000000000000000000000000000006044820152fd5b50831515610512565b50346101b957826003193601126101b957610629610bf5565b6005549060ff82161561066b575060ff1916600555513381527f5db9ee0a495bf2e6ff9c91a7834c1ba4fdd244a5e8aa4e537bd38aeae4b073aa90602090a180f35b8251638dfc202b60e01b8152fd5b509190346102065781600319360112610206578051908260065461069c81610c24565b8085529060019081811690811561031957506001146106e6575050829003601f01601f191682019267ffffffffffffffff8411838510176102ac57508291826102a8925282610b7b565b6006865290915084907ff652222313e28459528d920b65115c16c04f3efc82aaedc97be59f3f377c0d3f5b838310610728575050602091508301013880610277565b81816020929493945483858a0101520191019190610711565b50503461020657816003193601126102065760209060ff60055460a81c169051908152f35b50503461020657606036600319011261020657602090610234610787610bc4565b61078f610bdf565b6044359161079e833383610d44565b610c5e565b5050346102065781600319360112610206576020906002549051908152f35b50346101b957816003193601126101b9576107db610bc4565b602435903315610854576001600160a01b031691821561083d57508083602095338152600187528181208582528752205582519081527f8c5be1e5ebec7d5bd14f71427d1e84f3dd0314c0f7b2291e5b200ac8c7c3b925843392a35160018152f35b8351634a1406b160e11b8152908101859052602490fd5b835163e602df0560e01b8152808401869052602490fd5b509190346102065781600319360112610206578051908260035461088e81610c24565b8085529060019081811690811561031957506001146108d8575050829003601f01601f191682019267ffffffffffffffff8411838510176102ac57508291826102a8925282610b7b565b6003865290915084907fc2575a0e9e593c00f959f8c92f12db2869c3395a3b0502d05e2516446f71f85b5b83831061091a575050602091508301013880610277565b81816020929493945483858a0101520191019190610903565b505034610206578160031936011261020657602090516001600160a01b037f0000000000000000000000000000000000000000000000000000000000000000168152f35b5082903461020657602092836003193601126101b95781359367ffffffffffffffff92838611610b735736602387011215610b7357850135928311610b7757602436818588010111610b73576109cb610bf5565b6109d6600654610c24565b601f8111610b11575b5084601f8511600114610a675781869786809481947f929ee81da383f5dfeeb0f35f1406912160010035665b2e977e1fd973631ed4099a92610a5a575b50508360011b906000198560031b1c1916176006555b855196858896875286015201848401378181018301869052601f01601f19168101030190a180f35b830101359050828b610a1c565b60068652957ff652222313e28459528d920b65115c16c04f3efc82aaedc97be59f3f377c0d3f601f198616875b818110610af85750918693917f929ee81da383f5dfeeb0f35f1406912160010035665b2e977e1fd973631ed409989985809510610adc575b5050600183811b01600655610a32565b8201830135600019600386901b60f8161c191690558980610acc565b838a018501358355988501986001909201918501610a94565b600686527ff652222313e28459528d920b65115c16c04f3efc82aaedc97be59f3f377c0d3f601f860160051c810191848710610b69575b601f0160051c01905b818110610b5e57506109df565b868155600101610b51565b9091508190610b48565b8480fd5b8380fd5b6020808252825181830181905290939260005b828110610bb057505060409293506000838284010152601f8019910116010190565b818101860151848201604001528501610b8e565b600435906001600160a01b0382168203610bda57565b600080fd5b602435906001600160a01b0382168203610bda57565b6001600160a01b0360055460081c163303610c0c57565b60405163118cdaa760e01b8152336004820152602490fd5b90600182811c92168015610c54575b6020831014610c3e57565b634e487b7160e01b600052602260045260246000fd5b91607f1691610c33565b916001600160a01b03808416928315610d2b5716928315610d1257610c81610ebf565b60009083825281602052604082205490838210610ce0575091604082827fddf252ad1be2c89b69c2b068fc378daa952ba7f163c4a11628f55a4df523b3ef958760209652828652038282205586815220818154019055604051908152a3565b60405163391434e360e21b81526001600160a01b03919091166004820152602481019190915260448101839052606490fd5b60405163ec442f0560e01b815260006004820152602490fd5b604051634b637e8f60e11b815260006004820152602490fd5b916001600160a01b038093169160009383855260016020526040938486209183169182875260205284862054926000198410610d84575b50505050505050565b848410610de857508015610dd0578115610db857855260016020528385209085526020520391205538808080808080610d7b565b8451634a1406b160e11b815260048101879052602490fd5b845163e602df0560e01b815260048101879052602490fd5b8551637dc7a0d960e11b81526001600160a01b039190911660048201526024810184905260448101859052606490fd5b906001600160a01b038216908115610d2b57610e32610ebf565b60009282845283602052604084205490828210610e8d5750817fddf252ad1be2c89b69c2b068fc378daa952ba7f163c4a11628f55a4df523b3ef926020928587528684520360408620558060025403600255604051908152a3565b60405163391434e360e21b81526001600160a01b03919091166004820152602481019190915260448101829052606490fd5b60ff60055416610ecb57565b60405163d93c066560e01b8152600490fdfea26469706673582212207b537e553004b9d1a91dd26330386cb6130dec9e086f729a5cd1ed7bd3baccb164736f6c63430008140033a26469706673582212209aabd7bfa2f32717c808932f89f7003eb325670b81f3f7f4dfa241f25b35d5ab64736f6c634300081400336080806040523461001b57600160005561311990816100218239f35b600080fdfe6080604090808252600491823610156200001857600080fd5b600091823560e01c9081631b2b669b146200061d575080634e2a6e3614620005de57806399351f801462000583578063bd9aabee1462000276578063c263bdaa1462000214578063c3722dd51462000168578063ddecf84f14620001485763ffa03821146200008657600080fd5b3462000144576020908160031936011262000140576001600160a01b039182620000af6200065b565b16845260038152818420908251809482845492838152019387528287209287915b83831062000126575050505050829003601f01601f191682019267ffffffffffffffff8411838510176200011357508291826200010f925282620006d7565b0390f35b634e487b7160e01b815260418552602490fd5b8454811686529481019460019485019490920191620000d0565b8280fd5b5080fd5b503462000144578160031936011262000144576020906001549051908152f35b50346200014457816003193601126200014457805190816001908154918282526020809201928187527fb10e2d527612073b26eecdfd717e6a320cf44b4afac2b0732d9fcbe2b7fa0cf69287905b828210620001f5575050505050829003601f01601f191682019267ffffffffffffffff8411838510176200011357508291826200010f925282620006d7565b84546001600160a01b03168652948501949383019390830190620001b6565b50346200014457806003193601126200014457620002316200065b565b602435926001600160a01b0380921681526003602052828120908154851015620002735750602093620002649162000677565b90549060031b1c169051908152f35b80fd5b503462000144576080366003190112620001445767ffffffffffffffff9280358481116200057f57620002ad9036908301620006a6565b93909460249485358281116200057f57620002cc9036908601620006a6565b6044929192358481116200057b57620002e99036908801620006a6565b90606435956001600160a01b039283881680980362000577576002895414620005675760028955851515806200055d575b8062000553575b1562000511578a51926129a580850193841185851017620004ff578493928f92620003778f93620003859562000367916200073f8a3960a088528c60a08901916200071d565b86810360208801528a8d6200071d565b92858403908601526200071d565b90886060820152608033910152039087f08015620004f557811698600197885491680100000000000000009283811015620004e3578a8101808c55811015620004d1577fb10e2d527612073b26eecdfd717e6a320cf44b4afac2b0732d9fcbe2b7fa0cf6018c7fffffffffffffffffffffffff00000000000000000000000000000000000000008254161790558b895260026020528a89208a60ff1982541617905533895260036020528a892091825493841015620004c05750507f149ef7a90045c937fdb01832e7215dd355a0f8970a731b49ce3a0f9a12a8237e9360209c936200047d84620004b6948f99968e01815562000677565b819291549060031b9189831b921b1916179055620004a68b519485948d86528d8601916200071d565b908382038e85015233976200071d565b0390a45551908152f35b634e487b7160e01b8a526041905288fd5b50634e487b7160e01b89526032825288fd5b50634e487b7160e01b89526041825288fd5b88513d88823e3d90fd5b634e487b7160e01b8b5260418c528d8bfd5b8a5162461bcd60e51b81526020818c0152600e818e01527f496e76616c696420706172616d730000000000000000000000000000000000006044820152606490fd5b5087151562000321565b508415156200031a565b8a51633ee5aeb560e01b81528a90fd5b8880fd5b8580fd5b8380fd5b5082346200014057602036600319011262000140573560015481101562000140576001600160a01b03906001602094527fb10e2d527612073b26eecdfd717e6a320cf44b4afac2b0732d9fcbe2b7fa0cf60154169051908152f35b503462000144576020366003190112620001445760ff816020936001600160a01b036200060a6200065b565b1681526002855220541690519015158152f35b9190503462000140576020366003190112620001405760ff906020936001600160a01b036200064b6200065b565b1681526002855220541615158152f35b600435906001600160a01b03821682036200067257565b600080fd5b8054821015620006905760005260206000200190600090565b634e487b7160e01b600052603260045260246000fd5b9181601f84011215620006725782359167ffffffffffffffff83116200067257602083818601950101116200067257565b6020908160408183019282815285518094520193019160005b828110620006ff575050505090565b83516001600160a01b031685529381019392810192600101620006f0565b908060209392818452848401376000828201840152601f01601f191601019056fe60a0604052346200057257620029a5803803806200001d8162000577565b928339810160a082820312620005725781516001600160401b03908181116200057257826200004e9185016200059d565b90602090818501518181116200057257846200006c9187016200059d565b936040860151908282116200057257620000889187016200059d565b94620000a560806200009d606084016200060f565b92016200060f565b9380518381116200055c576000968754916001938484811c9416801562000551575b888510146200045b578190601f94858111620004fe575b5088908583116001146200049a578b926200048e575b5050600019600383901b1c191690841b1788555b8051908582116200047a5783548481811c911680156200046f575b888210146200045b5790818484931162000408575b508790848311600114620003a4578a9262000398575b5050600019600383901b1c191690831b1782555b6001600160a01b039283169788156200037f57600880546001600160a01b03198082168c17909255604051919991908b9087167f8be0079c531659141344cd1fd0a4f28419497f9722a3daafe3b4186f6b6457e08480a384600b556000199586600c55607d60a21b81600d541617600d558916156200034b5750815195861162000337576009548481811c911680156200032c575b888210146200031857838111620002cf575b50869286116001146200026357949550859291908362000257575b50501b9260031b1c1916176009555b608052600d541617600d556040516123809081620006258239608051816115970152f35b01519350388062000224565b6009815286812093969394938691601f198316915b89838310620002b457505050106200029b575b50505050811b0160095562000233565b01519060f88460031b161c19169055388080806200028b565b85870151895590970196948501948893509081019062000278565b600982528782208480890160051c8201928a8a106200030e575b0160051c019085905b8281106200030257505062000209565b838155018590620002f2565b92508192620002e9565b634e487b7160e01b82526022600452602482fd5b90607f1690620001f7565b634e487b7160e01b81526041600452602490fd5b62461bcd60e51b815260048101889052600f60248201526e496e76616c6964206164647265737360881b6044820152606490fd5b604051631e4fbdf760e01b815260048101899052602490fd5b0151905038806200014e565b858b52888b208694509190601f1984168c5b8b828210620003f15750508411620003d7575b505050811b01825562000162565b015160001960f88460031b161c19169055388080620003c9565b8385015186558997909501949384019301620003b6565b909150848a52878a208480850160051c8201928a861062000451575b918791869594930160051c01915b8281106200044257505062000138565b8c815585945087910162000432565b9250819262000424565b634e487b7160e01b8a52602260045260248afd5b90607f169062000123565b634e487b7160e01b89526041600452602489fd5b015190503880620000f4565b8b8052898c208794509190601f1984168d5b8c828210620004e75750508411620004cd575b505050811b01885562000108565b015160001960f88460031b161c19169055388080620004bf565b8385015186558a97909501949384019301620004ac565b9091508a8052888b208580850160051c8201928b861062000547575b918891869594930160051c01915b82811062000538575050620000de565b8d815585945088910162000528565b925081926200051a565b93607f1693620000c7565b634e487b7160e01b600052604160045260246000fd5b600080fd5b6040519190601f01601f191682016001600160401b038111838210176200055c57604052565b919080601f84011215620005725782516001600160401b0381116200055c57602090620005d3601f8201601f1916830162000577565b92818452828287010111620005725760005b818110620005fb57508260009394955001015290565b8581018301518482018401528201620005e5565b51906001600160a01b0382168203620005725756fe6080604081815260048036101561001557600080fd5b600092833560e01c90816301ffc9a7146115bb5750806302d05d3f1461157757806306fdde03146114cf578063081812fc14611496578063095ea7b3146113bc5780631653190e1461131257806318160ddd146112d257806323b872dd146112ba5780632a55205a146111fa5780633f4ba83a1461119157806342842e0e146111685783816342966c6814610ffa5750806355f804b314610e2a5780635c975abb14610e065780636352211e14610dd657806364ba144e14610b0d5780636f8b44b014610a5357806370a08231146109fe578063715018a6146109a357806375794a3c1461098457806381ddcc1f146109625780638456cb59146109075780638da5cb5b146108df5780638f2fc60b146107f45780639471302e1461060a57806395d89b41146105275780639fbc8713146104ff578063a22cb46514610462578063b88d4fde146103fa578063c87b56dd146103c2578063d0def52114610297578063d5abeb0114610278578063e985e9c5146102265763f2fde38b1461019b57600080fd5b34610222576020366003190112610222576101b46116a3565b906101bd61180f565b6001600160a01b0380921692831561020c575050600854826001600160a01b0319821617600855167f8be0079c531659141344cd1fd0a4f28419497f9722a3daafe3b4186f6b6457e08380a380f35b51631e4fbdf760e01b8152908101849052602490fd5b8280fd5b50503461027457806003193601126102745760ff816020936102466116a3565b61024e6116be565b6001600160a01b0391821683526005875283832091168252855220549151911615158152f35b5080fd5b505034610274578160031936011261027457602090600c549051908152f35b508290346102745782600319360112610274576102b26116a3565b916024359067ffffffffffffffff82116103bf57506102d49036908301611709565b906102dd61180f565b6001600160a01b03841692831515806103b1575b1561036e57600b546020908781877fd35bb95e09c04b219e35047ce7b7b300e3384264ef84a40456943dbc0fc17c148888610338858e61033082611bf0565b600b55611c15565b81610355575b61034c865192839283611bc8565b0390a351908152f35b6103696103633684846117d8565b86611cf8565b61033e565b606490602087519162461bcd60e51b8352820152600c60248201527f496e76616c6964206d696e7400000000000000000000000000000000000000006044820152fd5b50600b54600c5410156102f1565b80fd5b5091346103bf5760203660031901126103bf57506103e36103f69235611f63565b905191829160208352602083019061167e565b0390f35b838234610274576080366003190112610274576104156116a3565b61041d6116be565b9060643567ffffffffffffffff811161045e573660238201121561045e5761045b93816024610451933693013591016117d8565b9160443591611a22565b80f35b8480fd5b50903461022257806003193601126102225761047c6116a3565b906024359182151580930361045e576001600160a01b03169283156104ea5750338452600560205280842083855260205280842060ff1981541660ff8416179055519081527f17307eab39ab6107e8899845ad3d59bd9653f200f220920489ca2b5937696c3160203392a380f35b836024925191630b61174360e31b8352820152fd5b5050346102745781600319360112610274576020906001600160a01b03600d54169051908152f35b50503461027457816003193601126102745780519082600180549161054b8361183b565b808652928281169081156105e25750600114610586575b505050610574826103f694038361179a565b5191829160208352602083019061167e565b94508085527fb10e2d527612073b26eecdfd717e6a320cf44b4afac2b0732d9fcbe2b7fa0cf65b8286106105ca575050506105748260206103f69582010194610562565b805460208787018101919091529095019481016105ad565b6103f697508693506020925061057494915060ff191682840152151560051b82010194610562565b5082903461027457602092836003193601126102225767ffffffffffffffff90823582811161045e576106409036908501611709565b93909261064b61180f565b84116107e1575061065d600a5461183b565b601f811161077f575b508394601f84116001146106d457506106c3908385967f2c2d11707f68bf1dfd8230437db5f0f4840eacb8cc232f1c58f1f0d10bcd489e96916106c9575b508460011b906000198660031b1c191617600a555b5192839283611bc8565b0390a180f35b9050830135876106a4565b94601f198416600a86527fc65a7bb8d6351c1cf70c95a316cc6a92839c986682d98bc35f958f4883f9d2a89686905b828210610766575050956106c39291857f2c2d11707f68bf1dfd8230437db5f0f4840eacb8cc232f1c58f1f0d10bcd489e97981061074c575b5050600184811b01600a556106b9565b840135600019600387901b60f8161c19169055868061073c565b8386013589556001909801979283019290810190610703565b600a85527fc65a7bb8d6351c1cf70c95a316cc6a92839c986682d98bc35f958f4883f9d2a8601f850160051c8101918786106107d7575b601f0160051c01905b8181106107cc5750610666565b8581556001016107bf565b90915081906107b6565b634e487b7160e01b855260419052602484fd5b5091903461027457806003193601126102745761080f6116a3565b92602435936bffffffffffffffffffffffff85169081860361045e576001600160a01b039061083c61180f565b1691821515806108d3575b1561089057506001600160a01b03197f8039bd6e4e7dba001c8840eb2e118d9d131246faa7d0d04335f7305127ec0b10949560a01b168217600d5582519182526020820152a180f35b606490602085519162461bcd60e51b8352820152600f60248201527f496e76616c696420726f79616c747900000000000000000000000000000000006044820152fd5b506103e8821115610847565b5050346102745781600319360112610274576020906001600160a01b03600854169051908152f35b50503461027457816003193601126102745760207f62e78cea01bee320cd4e420270b5ea74000d11b0c9f74754ebdbfc544b05a2589161094561180f565b61094d611f02565b600160ff19600654161760065551338152a180f35b505034610274578160031936011261027457602090600d5460a01c9051908152f35b505034610274578160031936011261027457602090600b549051908152f35b83346103bf57806003193601126103bf576109bc61180f565b806001600160a01b036008546001600160a01b03198116600855167f8be0079c531659141344cd1fd0a4f28419497f9722a3daafe3b4186f6b6457e08280a380f35b5091346103bf5760203660031901126103bf576001600160a01b03610a216116a3565b16928315610a3e5750806020938392526003845220549051908152f35b91516322718ad960e21b815291820152602490fd5b50903461022257602036600319011261022257813591610a7161180f565b600b546000198101908111610afa578310610ab85750816020917f7810bd47de260c3e9ee10061cf438099dd12256c79485f12f94dbccc981e806c93600c5551908152a180f35b6020606492519162461bcd60e51b8352820152601260248201527f4d617820737570706c7920746f6f206c6f7700000000000000000000000000006044820152fd5b634e487b7160e01b855260118252602485fd5b5082903461027457826003193601126102745767ffffffffffffffff908035828111610dd257610b409036908301611737565b939091602493843590811161022257610b5c9036908301611737565b9490610b6661180f565b86151580610dc9575b80610d93575b15610d5157610b88879694959897611e6e565b93610b958851958661179a565b868552610ba187611e6e565b602099868b019891601f1901368a37875b828110610bfb575050505050505083519485948186019282875251809352850193925b828110610be457505050500390f35b835185528695509381019392810192600101610bd5565b6001600160a01b039b9897999a9b80610c1d610c18848787611e86565b611eac565b1615610d0f57600b90815491610c3283611bf0565b9055610c4b82610c46610c18868989611e86565b611c15565b610c56838789611ec0565b9050610cec575b8b51831015610cda57908d7fd35bb95e09c04b219e35047ce7b7b300e3384264ef84a40456943dbc0fc17c148493898f8f878c610cb3610c18838f8f610ccf9f610cb9988f919a610cc79b60051b010152611e86565b94611ec0565b909551938493169583611bc8565b0390a3611bf0565b9a999896979a610bb2565b634e487b7160e01b8a5260328952878afd5b610d0a610d04610cfd85898b611ec0565b36916117d8565b83611cf8565b610c5d565b8c5162461bcd60e51b81528089018b90526011818901527f496e76616c696420726563697069656e740000000000000000000000000000006044820152606490fd5b875162461bcd60e51b81526020818501526012818401527f496e76616c6964206261746368206d696e7400000000000000000000000000006044820152606490fd5b50600b54878101809111610db7576000198101908111610db757600c541015610b75565b634e487b7160e01b8552601184528285fd5b50858714610b6f565b8380fd5b5091346103bf5760203660031901126103bf57506001600160a01b03610dfe60209335611b8d565b915191168152f35b50503461027457816003193601126102745760209060ff6006541690519015158152f35b5082903461027457602092836003193601126102225767ffffffffffffffff90823582811161045e57610e609036908501611709565b939092610e6b61180f565b84116107e15750610e7d60095461183b565b601f8111610f98575b508394601f8411600114610eed57506106c3908385967f6741b2fc379fad678116fe3d4d4b9a1a184ab53ba36b86ad0fa66340b1ab41ad9691610ee2575b508460011b906000198660031b1c1916176009555192839283611bc8565b905083013587610ec4565b94601f198416600986527f6e1540171b6c0c960b71a7020d9f60077f6af931a8bbf590da0223dacf75c7af9686905b828210610f7f575050956106c39291857f6741b2fc379fad678116fe3d4d4b9a1a184ab53ba36b86ad0fa66340b1ab41ad979810610f65575b5050600184811b016009556106b9565b840135600019600387901b60f8161c191690558680610f55565b8386013589556001909801979283019290810190610f1c565b600985527f6e1540171b6c0c960b71a7020d9f60077f6af931a8bbf590da0223dacf75c7af601f850160051c810191878610610ff0575b601f0160051c01905b818110610fe55750610e86565b858155600101610fd8565b9091508190610fcf565b9190503461027457602092836003193601126102225781359361101b611f02565b848452600281526001600160a01b03928383862054169333151590816110bb575b50505060029083611083575b8585525282206001600160a01b031981541690557fddf252ad1be2c89b69c2b068fc378daa952ba7f163c4a11628f55a4df523b3ef8280a480f35b6110a486600052600460205260406000206001600160a01b03198154169055565b838552600381528285208054600019019055611048565b90809293949596509161111c575b50156110db579081808795949361103c565b92151590506110f957916024925191637e27328960e01b8352820152fd5b5163177e802f60e01b815233918101918252602082019290925281906040010390fd5b3386149150811561114b575b8115611136575b50386110c9565b8688528284528488205416331490503861112f565b8588526005845284882033895284528488205460ff169150611128565b5050346102745761045b9061117c366116d4565b9192519261118984611768565b858452611a22565b50346102225782600319360112610222576111aa61180f565b6006549060ff8216156111ec575060ff1916600655513381527f5db9ee0a495bf2e6ff9c91a7834c1ba4fdd244a5e8aa4e537bd38aeae4b073aa90602090a180f35b8251638dfc202b60e01b8152fd5b5091346103bf57816003193601126103bf57602435918335825260026020526001600160a01b03908181842054161561127857600d54928360a01c948581029581870414901517156112655781518484166001600160a01b0316815261271086046020820152604090f35b634e487b7160e01b815260118652602490fd5b5162461bcd60e51b8152602081860152600f60248201527f546f6b656e206e6f7420657869737400000000000000000000000000000000006044820152606490fd5b83346103bf5761045b6112cc366116d4565b91611875565b50919034610274578160031936011261027457600b546000198101929083116112ff576020838351908152f35b634e487b7160e01b815260118452602490fd5b50503461027457816003193601126102745780519082600a546113348161183b565b808552916001918083169081156105e2575060011461135f57505050610574826103f694038361179a565b9450600a85527fc65a7bb8d6351c1cf70c95a316cc6a92839c986682d98bc35f958f4883f9d2a85b8286106113a4575050506105748260206103f69582010194610562565b80546020878701810191909152909501948101611387565b5090346102225780600319360112610222576113d66116a3565b916024356113e381611b8d565b33151580611483575b8061145b575b6114455781906001600160a01b03809616958691167f8c5be1e5ebec7d5bd14f71427d1e84f3dd0314c0f7b2291e5b200ac8c7c3b9258880a484526020528220906001600160a01b031982541617905580f35b835163a9fbf51f60e01b81523381850152602490fd5b506001600160a01b0381168652600560205283862033875260205260ff8487205416156113f2565b50336001600160a01b03821614156113ec565b50346102225760203660031901126102225781602093826001600160a01b0393356114c081611b8d565b50825285522054169051908152f35b5050346102745781600319360112610274578051908280546114f08161183b565b808552916001918083169081156105e2575060011461151b57505050610574826103f694038361179a565b80809650527f290decd9548b62a8d60345a988386fc84ba6bc95484008f6362f93160ef3e5635b82861061155f575050506105748260206103f69582010194610562565b80546020878701810191909152909501948101611542565b505034610274578160031936011261027457602090516001600160a01b037f0000000000000000000000000000000000000000000000000000000000000000168152f35b92505034610222576020366003190112610222573563ffffffff60e01b8116809103610222576020925063152a902d60e11b81149081156115fe575b5015158152f35b632483248360e11b811491508115611618575b50386115f7565b6380ac58cd60e01b81149150811561164a575b8115611639575b5038611611565b6301ffc9a760e01b14905038611632565b635b5e139f60e01b8114915061162b565b60005b83811061166e5750506000910152565b818101518382015260200161165e565b906020916116978151809281855285808601910161165b565b601f01601f1916010190565b600435906001600160a01b03821682036116b957565b600080fd5b602435906001600160a01b03821682036116b957565b60609060031901126116b9576001600160a01b039060043582811681036116b9579160243590811681036116b9579060443590565b9181601f840112156116b95782359167ffffffffffffffff83116116b957602083818601950101116116b957565b9181601f840112156116b95782359167ffffffffffffffff83116116b9576020808501948460051b0101116116b957565b6020810190811067ffffffffffffffff82111761178457604052565b634e487b7160e01b600052604160045260246000fd5b90601f8019910116810190811067ffffffffffffffff82111761178457604052565b67ffffffffffffffff811161178457601f01601f191660200190565b9291926117e4826117bc565b916117f2604051938461179a565b8294818452818301116116b9578281602093846000960137010152565b6001600160a01b0360085416330361182357565b60405163118cdaa760e01b8152336004820152602490fd5b90600182811c9216801561186b575b602083101461185557565b634e487b7160e01b600052602260045260246000fd5b91607f169161184a565b916001600160a01b03809216918215611a0957611890611f02565b600093828552826020946002865260409584878920541696879133151580611970575b509060027fddf252ad1be2c89b69c2b068fc378daa952ba7f163c4a11628f55a4df523b3ef9284611938575b858c5260038152828c2060018154019055868c5252808a20846001600160a01b0319825416179055519880a4168083036119195750505050565b6364283d7b60e01b845260048401526024830152604482015260649150fd5b61195987600052600460205260406000206001600160a01b03198154169055565b848c5260038152828c2080546000190190556118df565b919394509150806119c8575b1561198c578592918791386118b3565b5084866119a9576024915190637e27328960e01b82526004820152fd5b905163177e802f60e01b81523360048201526024810191909152604490fd5b5033871480156119ed575b8061197c5750858852600481523385838a2054161461197c565b5086885260058152818820338952815260ff82892054166119d3565b604051633250574960e11b815260006004820152602490fd5b929092611a30838583611875565b833b611a3d575b50505050565b6001600160a01b0394919293948095169360405195630a85bd0160e11b9283885233600489015216602487015260448601526080606486015284611a87602094608483019061167e565b039483816000978189895af1869181611b31575b50611afc575050503d600014611af3573d611ab5816117bc565b90611ac3604051928361179a565b81528093823d92013e5b82519283611aee57604051633250574960e11b815260048101849052602490fd5b019050fd5b60609250611acd565b919450915063ffffffff60e01b1603611b19575038808080611a37565b60249060405190633250574960e11b82526004820152fd5b9091508481813d8311611b86575b611b49818361179a565b81010312611b8257517fffffffff0000000000000000000000000000000000000000000000000000000081168103611b82579038611a9b565b8680fd5b503d611b3f565b8060005260026020526001600160a01b0360406000205416908115611bb0575090565b60249060405190637e27328960e01b82526004820152fd5b90918060409360208452816020850152848401376000828201840152601f01601f1916010190565b6000198114611bff5760010190565b634e487b7160e01b600052601160045260246000fd5b6001600160a01b038091168015611a0957611c2e611f02565b6000918383526002602052604083205416928315159182611cbe575b80845260036020526040842060018154019055818452600260205260408420816001600160a01b0319825416179055604051947fddf252ad1be2c89b69c2b068fc378daa952ba7f163c4a11628f55a4df523b3ef8580a4611ca9575050565b6339e3563760e11b8252600482015260249150fd5b611cdf82600052600460205260406000206001600160a01b03198154169055565b8484526003602052604084208054600019019055611c4a565b91909160009080825260209160078352604081209085519067ffffffffffffffff8211611e5a57611d29835461183b565b601f8111611e17575b508490601f8311600114611d9357907ff8e1a15aba9398e019f0b49df1a4fde98ee17ae345cb5f6b5e2c27f5033e8ce7969783611d88575b50508160011b916000199060031b1c19161790555b604051908152a1565b015190503880611d6a565b9196601f198816848452868420935b818110611e0057509160019391897ff8e1a15aba9398e019f0b49df1a4fde98ee17ae345cb5f6b5e2c27f5033e8ce7999a9410611de7575b505050811b019055611d7f565b015160001960f88460031b161c19169055388080611dda565b929387600181928786015181550195019301611da2565b838252858220601f840160051c810191878510611e50575b601f0160051c01905b818110611e455750611d32565b828155600101611e38565b9091508190611e2f565b634e487b7160e01b81526041600452602490fd5b67ffffffffffffffff81116117845760051b60200190565b9190811015611e965760051b0190565b634e487b7160e01b600052603260045260246000fd5b356001600160a01b03811681036116b95790565b9190811015611e965760051b81013590601e19813603018212156116b957019081359167ffffffffffffffff83116116b95760200182360381136116b9579190565b60ff60065416611f0e57565b60405163d93c066560e01b8152600490fd5b6020611f61919392936040519481611f41879351809286808701910161165b565b8201611f558251809386808501910161165b565b0103808552018361179a565b565b611f6c81611b8d565b506000818152602060078152604091828120835194829186815493611f908561183b565b9283835260019588878216918260001461232a5750506001146122ec575b50611fbb9250038761179a565b8451600954968491611fcc8961183b565b80825281868b1694858a816000146122cf5750600114612274575b611ff39250038261179a565b80511561226857815161225657505061200b82611b8d565b508551809785908761201c8261183b565b808552949182156122395750506001146121de575b61203d9250038761179a565b8551156121c9578092819481927a184f03e93ff9f4daa797ed6e38ed64bf6a1f01000000000000000090818110156121bc575b50506d04ee2d6d415b85acef8100000000808710156121af575b50662386f26fc10000808710156121a0575b506305f5e10080871015612191575b5061271080871015612182575b506064861015612170575b906021929184600a80981015612166575b9594939291908483016120f26120e9826117bc565b9a519a8b61179a565b808a52612101601f19916117bc565b019036908a013750860101905b612123575b5050505061212091611f20565b90565b600019019083907f30313233343536373839616263646566000000000000000000000000000000008282061a8353049182156121615791908261210e565b612113565b90920191846120d4565b606490950494600292909201916120c3565b600491939604950191386120b8565b600891939604950191386120ab565b6010919396049501913861209c565b819396049501913861208a565b0495508692503880612070565b505092505051906121d982611768565b815290565b505060098452868585857f6e1540171b6c0c960b71a7020d9f60077f6af931a8bbf590da0223dacf75c7af5b85831061222057505061203d9350820101612031565b80919294505483858d0101520191018690858a9361220a565b60ff19168482015261203d94151560051b84010191506120319050565b95509550505050506121209250611f20565b50965050505050505090565b505060098752818888887f6e1540171b6c0c960b71a7020d9f60077f6af931a8bbf590da0223dacf75c7af5b8583106122b6575050611ff39350820101611fe7565b80919294505483858801015201910189908885936122a0565b915050611ff39260ff198d1682840152151560051b820101611fe7565b915050845286858086208587915b858310612311575050611fbb935082010138611fae565b80919294505483858d0101520191018690858a936122fa565b60ff191685820152611fbb95151560051b8501019250389150611fae905056fea2646970667358221220addca5c2a661073e9d05f4253a56f5f1810725771e1a292c239e1f8eda782b2d64736f6c63430008140033a2646970667358221220c962ade80af1bf1ef3373877eb256a55e70684e56e1ef8ec34d7e41ea9f1bcf864736f6c6343000814003360808060405234610016576128da908161001c8239f35b600080fdfe60806040908082526004908136101561009b575b5050361561005c5761005a905161002981611c44565b601081527f46616c6c6261636b206465706f73697400000000000000000000000000000000602082015234336125bb565b005b61005a905161006a81611c44565b600e81527f446972656374206465706f736974000000000000000000000000000000000000602082015234336125bb565b600091823560e01c91826301ffc9a714611b58575081630251cfa11461037b57816306f6e7c014611b3957816312065fe014611b1e57816315d63e80146118b05781631c6b601d146118915781631ffbb0641461181f57816322459e18146117e4578163248a9ca3146117ab578163299f43e21461174c5781632f2ff15d1461172257816336568abe146116dc5781633a4f904d146116a05781633c19804e146116825781633f4ba83a146115f75781634c9f19fe1461155b5781634eea6d791461148d57816357599af2146114715781635c975abb1461142e578163622ae7aa146113ab578163715018a6146113305781637fcd8efa1461109f5781638456cb59146110255781638da5cb5b14610fde5781638e5a654a14610fad57816391d1485414610f5957816392b2b7ae14610dd357816393d0aead14610d975781639687137314610d3e578163a217fddf14610d23578163a26e118614610cd7578163a41e4eef14610cb3578163a820029914610a36578163b43ced0f14610a0e578163b8889e641461097d578163d547741f14610934578163db0ed6a0146104ca578163db2e21bc146103fe578163e0527422146103e0578163e4304313146103b6578163e94032561461037b578163f2fde38b1461034e578163f4c3066f14610327578163f59b2850146102ca575063f97573131461029a5780610013565b346102c75760203660031901126102c7576102c36102b6611bab565b6102be6122fa565b612072565b5080f35b80fd5b839150346103235760203660031901126103235735600954811015610323576001600160a01b03906009602094527f6e1540171b6c0c960b71a7020d9f60077f6af931a8bbf590da0223dacf75c7af0154169051908152f35b8280fd5b8383346102c757806003193601126102c757506001600160a01b0360209254169051908152f35b82346102c75760203660031901126102c75761037861036b611bab565b6103736122fa565b612345565b80f35b8284346103b25760203660031901126103b257806020926001600160a01b036103a2611bab565b1681526006845220549051908152f35b5080fd5b82346102c75760203660031901126102c7576102c36103d3611bab565b6103db6122fa565b6121bc565b8284346103b257816003193601126103b25760209051620151808152f35b839150346103235782600319360112610323576104196122fa565b47908115610487575060207f23d6711a1d031134a36921253c75aa59e967d38e369ac625992824315e204f20916001600160a01b037f9016d09d72d40fdae2fd8ceac6b6234c7706214fd39c1cd1e609a0528c19930061047c83838354166127f8565b54169351908152a280f35b606490602084519162461bcd60e51b8352820152600860248201527f4e6f2066756e64730000000000000000000000000000000000000000000000006044820152fd5b839150346103235760a03660031901126103235767ffffffffffffffff8135818111610930576104fd9036908401611f07565b9060243581811161092c576105159036908501611f07565b91604435926001600160a01b0380851685036109285760643581811680910361092457608435918216809203610924577ff0c57e16840df040f15088dc2f81fe391c3923bec73e23a9662efc9c229c6a009687549660ff888b1c1615968089169889158061091d575b6001809b149081610913575b15908161090a575b506108fa5767ffffffffffffffff1981168a178b55886108db575b506105ba875115156123cb565b6105c3826127bc565b6105cb6124fb565b6105d36124fb565b6105dc82612345565b6105e46124fb565b6105ec6124fb565b6105f46124fb565b887f9b779b17422d0df92223018b32b4d1fa46e071723d6817e2486d003becc55f005561061f6124fb565b86518181116108c85761063b816106368f54611c0a565b612417565b8060208e6001601f84111461084c5791610841575b50600019600383901b1c1916908a1b178c555b855190811161082e5761067f8161067a8b54611c0a565b612487565b8860208d601f841160011461077e5793838061072798956107199b98956106e4957fef7e144d2752b8cb8427d892dd1a950739a26085249752eda2925c9f9fcb4dd79e9c9993610773575b501b916000199060031b1c1916178c555b42600355611fd2565b506106ee30612072565b506001600160a01b03199182825416179055600554161760055588519384938a85528a850190611de9565b908382036020850152611de9565b0390a1610732578380f35b7fc7f505b2f371ae2175ee4913f4499e1f2633a7b5936321eed1cdaeb6115181d29260209268ff000000000000000019815416905551908152a18180808380f35b8a01519250386106ca565b90601f9392931983168483527fb10e2d527612073b26eecdfd717e6a320cf44b4afac2b0732d9fcbe2b7fa0cf6925b818110610816575093836106e4937fef7e144d2752b8cb8427d892dd1a950739a26085249752eda2925c9f9fcb4dd79c9a97936107199c99966107279b98106107fd575b5050811b018c556106db565b89015160001960f88460031b161c1916905538806107f1565b8a83015184558d9590930192602092830192016107ad565b634e487b7160e01b8c526041835260248cfd5b90508801518e610650565b908c9350601f1983168280527f290decd9548b62a8d60345a988386fc84ba6bc95484008f6362f93160ef3e563925b8c8282106108b15750508311610898575b5050811b018c55610663565b8a015160001960f88460031b161c191690558e8061088c565b83015184558e95909301926020928301920161087b565b634e487b7160e01b8d526041845260248dfd5b68ffffffffffffffffff191668010000000000000001178a558c6105ad565b8b5163f92ee8a960e01b81528490fd5b9050158e610592565b303b15915061058a565b508861057e565b8880fd5b8780fd5b8580fd5b8480fd5b905082346103235780600319360112610323576102c391356109786001610959611bc6565b9383875260008051602061288583398151915260205286200154611f9f565b612276565b5050346102c757806003193601126102c7578151918291600a54808552602080950194600a83527fc65a7bb8d6351c1cf70c95a316cc6a92839c986682d98bc35f958f4883f9d2a892905b8282106109ee576109ea86866109e0828b0383611c76565b5191829182611e70565b0390f35b83546001600160a01b0316875295860195600193840193909101906109c8565b8284346103b257816003193601126103b2576020906001600160a01b03600554169051908152f35b9050823461032357600319606036820112610caf5767ffffffffffffffff9383358581116103b257610a6b9036908601611bdc565b919060243587811161032357610a849036908801611bdc565b604494919435988911610caf57610aa360809697989936908b01611bdc565b9091610aad611f25565b83151580610ca6575b610abf9061271e565b6001600160a01b03968a8c8960055416610b3e8b7f9016d09d72d40fdae2fd8ceac6b6234c7706214fd39c1cd1e609a0528c199300541693519d8e9d8e94635ecd55f760e11b8652850152610b2d610b1c8c8c6084880191612671565b828682030160248701528888612671565b908482030160448501528789612671565b926064830152818a60209e8f9503925af18099889a610c77575b50610b6d578a51636851855360e11b81528c90fd5b8b888a9b9c999a9b169788815260088d52898120600160ff19825416179055600a549168010000000000000000831015610c64576001830180600a55831015610c5157507fe0aef41bb76b702f24a1efba973af9485d5f7414e8cc494d9aac0bf7e466ddad97969593610c479593610c3a938f93600a90527fc65a7bb8d6351c1cf70c95a316cc6a92839c986682d98bc35f958f4883f9d2a8018b6001600160a01b0319825416179055610c2d8c51998a9960608b5260608b0191612671565b9288840390890152612671565b9184830389860152612671565b0390a25191168152f35b634e487b7160e01b825260329052602490fd5b634e487b7160e01b825260419052602490fd5b610c98919a508b3d8d11610c9f575b610c908183611c76565b81019061276a565b988d610b58565b503d610c86565b50801515610ab6565b8380fd5b8284346103b257816003193601126103b257602090610cd0612789565b9051908152f35b905060203660031901126103b25780359067ffffffffffffffff821161032357610d0a610d1c9161037893369101611bdc565b610d1534151561253c565b3691611ed0565b34336125bb565b8284346103b257816003193601126103b25751908152602090f35b839150346103235760203660031901126103235735600a54811015610323576001600160a01b0390600a602094527fc65a7bb8d6351c1cf70c95a316cc6a92839c986682d98bc35f958f4883f9d2a80154169051908152f35b8284346103b25760203660031901126103b25760ff816020936001600160a01b03610dc0611bab565b1681526007855220541690519015158152f35b90508234610323576001600160a01b03610dec36611e29565b91939092610df8611f25565b610e00612692565b610e086126e1565b1694610e13866127bc565b610e1e841515612625565b610e29600354612588565b421015610f23575b4790610e3c826127de565b60025492908380821115610f1b57610e53916126d4565b808711610eff5750808611610ee257505091610eb891610e96857fd9ba1eb16f39979bb35b330048e2b8e6986431f4208f74f75446ae28636dc2ce9796956125ae565b600255610ea384886127f8565b84519485948552806020860152840191612671565b0390a260017f9b779b17422d0df92223018b32b4d1fa46e071723d6817e2486d003becc55f005580f35b865163cf47918160e01b8152918201869052602482015260449150fd5b82604491888a5192631fea4d4760e11b84528301526024820152fd5b505088610e53565b86600255426003557fab097944dea28876628dcb9f9b6b11f038fd5fe798f937b200e226b87290fa3960208651428152a1610e31565b839150346103235781600319360112610323578160209360ff92610f7b611bc6565b9035825260008051602061288583398151915286526001600160a01b0383832091168252855220541690519015158152f35b8284346103b257816003193601126103b2576109ea90610fcb611d53565b9051918291602083526020830190611de9565b8284346103b257816003193601126103b2576020906001600160a01b037f9016d09d72d40fdae2fd8ceac6b6234c7706214fd39c1cd1e609a0528c19930054169051908152f35b8284346103b257816003193601126103b25760207f62e78cea01bee320cd4e420270b5ea74000d11b0c9f74754ebdbfc544b05a258916110636122fa565b61106b6126e1565b7fcd5ed15c6e187e77e9aee88184c21f4f2182ab5827cb3b7e07fbedcd63f03300805460ff1916600117905551338152a180f35b9050346103b257826003193601126103b25767ffffffffffffffff928135848111610caf576110d19036908401611bdc565b929060243586811161092c576110ea9036908401611bdc565b9290966110f56122fa565b6111008615156123cb565b80861161131d57611115866106368954611c0a565b8587601f821160011461129d578891611292575b508660011b906000198860031b1c19161787555b831161127f575060016111548361067a8354611c0a565b85601f84116001146111d75786979284926111c6956111b8937fef7e144d2752b8cb8427d892dd1a950739a26085249752eda2925c9f9fcb4dd79a916111cc575b50600019600386901b1c191684821b1790555b8551968688978852870191612671565b918483036020860152612671565b0390a180f35b905085013538611195565b8187527fb10e2d527612073b26eecdfd717e6a320cf44b4afac2b0732d9fcbe2b7fa0cf690601f198516885b8181106112695750926111b8927fef7e144d2752b8cb8427d892dd1a950739a26085249752eda2925c9f9fcb4dd7999a9592876111c698961061124f575b50508084811b0190556111a8565b860135600019600387901b60f8161c191690553880611241565b8a83013584559284019260209283019201611203565b634e487b7160e01b865260419052602485fd5b905083013538611129565b8880527f290decd9548b62a8d60345a988386fc84ba6bc95484008f6362f93160ef3e563915087601f1981168a5b8181106113025750106112e8575b5050600186811b01875561113d565b840135600019600389901b60f8161c1916905538806112d9565b8784013585556001909401936020938401938b9350016112cb565b634e487b7160e01b875260418252602487fd5b82346102c757806003193601126102c7576113496122fa565b806001600160a01b037f9016d09d72d40fdae2fd8ceac6b6234c7706214fd39c1cd1e609a0528c1993008054906001600160a01b031982169055167f8be0079c531659141344cd1fd0a4f28419497f9722a3daafe3b4186f6b6457e08280a380f35b5050346102c757806003193601126102c7578151918291600954808552602080950194600983527f6e1540171b6c0c960b71a7020d9f60077f6af931a8bbf590da0223dacf75c7af92905b82821061140e576109ea86866109e0828b0383611c76565b83546001600160a01b0316875295860195600193840193909101906113f6565b8284346103b257816003193601126103b25760209060ff7fcd5ed15c6e187e77e9aee88184c21f4f2182ab5827cb3b7e07fbedcd63f03300541690519015158152f35b8284346103b257816003193601126103b2576020905160218152f35b8284346103b257816003193601126103b25790611517916114ac611c98565b916114b5611d53565b906001600160a01b037f9016d09d72d40fdae2fd8ceac6b6234c7706214fd39c1cd1e609a0528c199300541661152547926114ef846127de565b906114fb600354612588565b42106115375750935b855197889760a0895260a0890190611de9565b908782036020890152611de9565b93850152606084015260808301520390f35b6002549091818111156115545761154e92506126d4565b93611504565b505061154e565b90508234610323576001600160a01b0361157436611e29565b919390926115806122fa565b611588612692565b1694611593866127bc565b61159e841515612625565b478085116115da5750508291610eb891610ea37fd30b68ba794ba733ec10c7ddce3e044482efdaa4c2e6b3d233800535afe5139b9695886127f8565b855163cf47918160e01b8152918201859052602482015260449150fd5b839150346103235782600319360112610323576116126122fa565b7fcd5ed15c6e187e77e9aee88184c21f4f2182ab5827cb3b7e07fbedcd63f033009081549060ff821615611674575060ff19169055513381527f5db9ee0a495bf2e6ff9c91a7834c1ba4fdd244a5e8aa4e537bd38aeae4b073aa90602090a180f35b8351638dfc202b60e01b8152fd5b8284346103b257816003193601126103b2576109ea90610fcb611c98565b8284346103b25760203660031901126103b25760ff816020936001600160a01b036116c9611bab565b1681526008855220541690519015158152f35b8284346103b257806003193601126103b2576116f6611bc6565b90336001600160a01b0383160361171357506102c3919235612276565b5163334bd91960e11b81528390fd5b905082346103235780600319360112610323576102c391356117476001610959611bc6565b612134565b8284816003193601126103b257610378906117656122fa565b61177034151561253c565b5161177a81611c44565b600d81527f41646d696e2066756e64696e6700000000000000000000000000000000000000602082015234336125bb565b83915034610323576020366003190112610323578160209360019235815260008051602061288583398151915285522001549051908152f35b8284346103b257816003193601126103b257602090517fcab5a0bfe0b79d2c4b1c2e02599fa044d115b7511f9659307cb42769509677098152f35b8284346103b25760203660031901126103b25760ff81602093611840611bab565b7fcab5a0bfe0b79d2c4b1c2e02599fa044d115b7511f9659307cb4276950967709825260008051602061288583398151915286526001600160a01b0383832091168252855220541690519015158152f35b8284346103b257816003193601126103b2576020906002549051908152f35b9050823461032357600319608036820112610caf5767ffffffffffffffff9383358581116103b2576118e59036908601611bdc565b9190956024359081116103b2576118ff9036908701611bdc565b9690926044356064359460ff86168096036109305761191c611f25565b82151580611b15575b61192e9061271e565b8115611ad25760a0969798996001600160a01b03968b888154168c6119a38b7f9016d09d72d40fdae2fd8ceac6b6234c7706214fd39c1cd1e609a0528c199300541691519d8e9d8e95637d9871db60e11b875286015261199260a486018b8d612671565b908582030160248601528688612671565b9387604485015260648401526084830152818960209d8e9503925af180988799611ab3575b506119dd578951636851855360e11b81528b90fd5b8a87899a9b98999a169687815260078c52888120600160ff198254161790556009549168010000000000000000831015610c64576001830180600955831015610c515750917f965d14e60858869a5d867a6a8bc4d86b62d1af8fb0ec2e51ce43d009a073958b96959493916009611aa494527f6e1540171b6c0c960b71a7020d9f60077f6af931a8bbf590da0223dacf75c7af01886001600160a01b0319825416179055611a978951968796606088526060880191612671565b918583038d870152612671565b90868301520390a25191168152f35b611acb9199508a3d8c11610c9f57610c908183611c76565b978c6119c8565b875162461bcd60e51b81526020818b0152600e60248201527f496e76616c696420737570706c790000000000000000000000000000000000006044820152606490fd5b50891515611925565b8284346103b257816003193601126103b25751478152602090f35b8284346103b257816003193601126103b2576020906003549051908152f35b915034610323576020366003190112610323573563ffffffff60e01b81168091036103235760209250637965db0b60e01b8114908115611b9a575b5015158152f35b6301ffc9a760e01b14905083611b93565b600435906001600160a01b0382168203611bc157565b600080fd5b602435906001600160a01b0382168203611bc157565b9181601f84011215611bc15782359167ffffffffffffffff8311611bc15760208381860195010111611bc157565b90600182811c92168015611c3a575b6020831014611c2457565b634e487b7160e01b600052602260045260246000fd5b91607f1691611c19565b6040810190811067ffffffffffffffff821117611c6057604052565b634e487b7160e01b600052604160045260246000fd5b90601f8019910116810190811067ffffffffffffffff821117611c6057604052565b60405190600082815491611cab83611c0a565b80835292600190818116908115611d315750600114611cd4575b50611cd292500383611c76565b565b600080805291507f290decd9548b62a8d60345a988386fc84ba6bc95484008f6362f93160ef3e5635b848310611d165750611cd2935050810160200138611cc5565b81935090816020925483858a01015201910190918592611cfd565b905060209250611cd294915060ff191682840152151560051b82010138611cc5565b60405190600082600191825492611d6984611c0a565b80845293818116908115611d315750600114611d8c5750611cd292500383611c76565b600081815291507fb10e2d527612073b26eecdfd717e6a320cf44b4afac2b0732d9fcbe2b7fa0cf65b848310611dce5750611cd2935050810160200138611cc5565b81935090816020925483858a01015201910190918592611db5565b919082519283825260005b848110611e15575050826000602080949584010152601f8019910116010190565b602081830181015184830182015201611df4565b6060600319820112611bc1576004356001600160a01b0381168103611bc15791602435916044359067ffffffffffffffff8211611bc157611e6c91600401611bdc565b9091565b6020908160408183019282815285518094520193019160005b828110611e97575050505090565b83516001600160a01b031685529381019392810192600101611e89565b67ffffffffffffffff8111611c6057601f01601f191660200190565b929192611edc82611eb4565b91611eea6040519384611c76565b829481845281830111611bc1578281602093846000960137010152565b9080601f83011215611bc157816020611f2293359101611ed0565b90565b3360009081527f81cf8a8d68c3bf977ff8d17e8ef6f30dbea1776614c7d2258c5ab1b17338333f60205260409020547fcab5a0bfe0b79d2c4b1c2e02599fa044d115b7511f9659307cb42769509677099060ff1615611f815750565b6044906040519063e2517d3f60e01b82523360048301526024820152fd5b8060005260008051602061288583398151915260205260406000203360005260205260ff6040600020541615611f815750565b6001600160a01b031660008181527fb7db2dd08fcb62d0c9e08c51941cae53c267786a0b75803fb7960902fc8ef97d60205260408120549091906000805160206128858339815191529060ff1661206d578280526020526040822081835260205260408220600160ff1982541617905533917f2f8788117e7eff1d82e926ec794901d17c78024a50270940304540a733656f0d8180a4600190565b505090565b6001600160a01b031660008181527f81cf8a8d68c3bf977ff8d17e8ef6f30dbea1776614c7d2258c5ab1b17338333f60205260408120549091907fcab5a0bfe0b79d2c4b1c2e02599fa044d115b7511f9659307cb4276950967709906000805160206128858339815191529060ff1661212e578184526020526040832082845260205260408320600160ff198254161790557f2f8788117e7eff1d82e926ec794901d17c78024a50270940304540a733656f0d339380a4600190565b50505090565b90600091808352600080516020612885833981519152806020526001600160a01b036040852093169283855260205260ff6040852054161560001461212e578184526020526040832082845260205260408320600160ff198254161790557f2f8788117e7eff1d82e926ec794901d17c78024a50270940304540a733656f0d339380a4600190565b6001600160a01b031660008181527f81cf8a8d68c3bf977ff8d17e8ef6f30dbea1776614c7d2258c5ab1b17338333f60205260408120549091907fcab5a0bfe0b79d2c4b1c2e02599fa044d115b7511f9659307cb4276950967709906000805160206128858339815191529060ff161561212e57818452602052604083208284526020526040832060ff1981541690557ff6391f5c32d9c69d2a47ea670b442974b53935d1edc7fd64eb21e047a839171b339380a4600190565b90600091808352600080516020612885833981519152806020526001600160a01b036040852093169283855260205260ff60408520541660001461212e57818452602052604083208284526020526040832060ff1981541690557ff6391f5c32d9c69d2a47ea670b442974b53935d1edc7fd64eb21e047a839171b339380a4600190565b6001600160a01b037f9016d09d72d40fdae2fd8ceac6b6234c7706214fd39c1cd1e609a0528c1993005416330361232d57565b60405163118cdaa760e01b8152336004820152602490fd5b6001600160a01b038091169081156123b2577f9016d09d72d40fdae2fd8ceac6b6234c7706214fd39c1cd1e609a0528c199300805490836001600160a01b03198316179055167f8be0079c531659141344cd1fd0a4f28419497f9722a3daafe3b4186f6b6457e0600080a3565b604051631e4fbdf760e01b815260006004820152602490fd5b156123d257565b60405162461bcd60e51b815260206004820152600a60248201527f456d707479206e616d65000000000000000000000000000000000000000000006044820152606490fd5b601f8111612423575050565b6000908180527f290decd9548b62a8d60345a988386fc84ba6bc95484008f6362f93160ef3e563906020601f850160051c8301941061247d575b601f0160051c01915b82811061247257505050565b818155600101612466565b909250829061245d565b90601f8211612494575050565b6001916000908382527fb10e2d527612073b26eecdfd717e6a320cf44b4afac2b0732d9fcbe2b7fa0cf6906020601f850160051c830194106124f1575b601f0160051c01915b8281106124e75750505050565b81815583016124da565b90925082906124d1565b60ff7ff0c57e16840df040f15088dc2f81fe391c3923bec73e23a9662efc9c229c6a005460401c161561252a57565b604051631afcd79f60e31b8152600490fd5b1561254357565b60405162461bcd60e51b815260206004820152600860248201527f4e6f2076616c75650000000000000000000000000000000000000000000000006044820152606490fd5b9062015180820180921161259857565b634e487b7160e01b600052601160045260246000fd5b9190820180921161259857565b916001600160a01b037f53bd392522b272902b85d06641a5c298f18e160fffff1e84a020e622f79228109293169283600052600660205260406000206126028282546125ae565b90556126206040519283928352604060208401526040830190611de9565b0390a2565b1561262c57565b60405162461bcd60e51b815260206004820152600e60248201527f496e76616c696420616d6f756e740000000000000000000000000000000000006044820152606490fd5b908060209392818452848401376000828201840152601f01601f1916010190565b7f9b779b17422d0df92223018b32b4d1fa46e071723d6817e2486d003becc55f0060028154146126c25760029055565b604051633ee5aeb560e01b8152600490fd5b9190820391821161259857565b60ff7fcd5ed15c6e187e77e9aee88184c21f4f2182ab5827cb3b7e07fbedcd63f03300541661270c57565b60405163d93c066560e01b8152600490fd5b1561272557565b60405162461bcd60e51b815260206004820152601160248201527f456d707479206e616d652f73796d626f6c0000000000000000000000000000006044820152606490fd5b90816020910312611bc157516001600160a01b0381168103611bc15790565b612792476127de565b61279d600354612588565b421015611f22576002546000918181111561206d57611f2292506126d4565b6001600160a01b0316156127cc57565b60405163e6c4247b60e01b8152600490fd5b602181029080820460211490151715612598576064900490565b60008080936001600160a01b038294165af13d1561287f573d61281a81611eb4565b906128286040519283611c76565b8152600060203d92013e5b1561283a57565b60405162461bcd60e51b815260206004820152600f60248201527f5472616e73666572206661696c656400000000000000000000000000000000006044820152606490fd5b61283356fe02dd7bc7dec4dceedda775e58dd541e08a116c6c53815c0bd028192f7b626800a2646970667358221220d480f33ede921a94ade7532ef353b3a4cb566da5a0b601e958977209627c0c5264736f6c63430008140033",
  "linkReferences": {},
  "deployedLinkReferences": {}
}