{
  "_format": "hh-sol-artifact-1",
  "contractName": "AgentERC721Factory",
  "sourceName": "contracts/AgentERC721Factory.sol",
  "abi": [
    {
      "inputs": [],
      "name": "ReentrancyGuardReentrantCall",
      "type": "error"
    },
    {
      "anonymous": false,
      "inputs": [
        {
          "indexed": true,
          "internalType": "address",
          "name": "nft",
          "type": "address"
        },
        {
          "indexed": true,
          "internalType": "address",
          "name": "creator",
          "type": "address"
        },
        {
          "indexed": true,
          "internalType": "address",
          "name": "owner",
          "type": "address"
        },
        {
          "indexed": false,
          "internalType": "string",
          "name": "name",
          "type": "string"
        },
        {
          "indexed": false,
          "internalType": "string",
          "name": "symbol",
          "type": "string"
        }
      ],
      "name": "NFTCollectionCreated",
      "type": "event"
    },
    {
      "inputs": [
        {
          "internalType": "string",
          "name": "name",
          "type": "string"
        },
        {
          "internalType": "string",
          "name": "symbol",
          "type": "string"
        },
        {
          "internalType": "string",
          "name": "baseURI",
          "type": "string"
        },
        {
          "internalType": "address",
          "name": "owner",
          "type": "address"
        }
      ],
      "name": "createNFT",
      "outputs": [
        {
          "internalType": "address",
          "name": "nftAddress",
          "type": "address"
        }
      ],
      "stateMutability": "nonpayable",
      "type": "function"
    },
    {
      "inputs": [
        {
          "internalType": "uint256",
          "name": "",
          "type": "uint256"
        }
      ],
      "name": "createdNFTs",
      "outputs": [
        {
          "internalType": "address",
          "name": "",
          "type": "address"
        }
      ],
      "stateMutability": "view",
      "type": "function"
    },
    {
      "inputs": [],
      "name": "getAllCreatedNFTs",
      "outputs": [
        {
          "internalType": "address[]",
          "name": "",
          "type": "address[]"
        }
      ],
      "stateMutability": "view",
      "type": "function"
    },
    {
      "inputs": [
        {
          "internalType": "address",
          "name": "creator",
          "type": "address"
        }
      ],
      "name": "getNFTsByCreator",
      "outputs": [
        {
          "internalType": "address[]",
          "name": "",
          "type": "address[]"
        }
      ],
      "stateMutability": "view",
      "type": "function"
    },
    {
      "inputs": [],
      "name": "getTotalNFTsCreated",
      "outputs": [
        {
          "internalType": "uint256",
          "name": "",
          "type": "uint256"
        }
      ],
      "stateMutability": "view",
      "type": "function"
    },
    {
      "inputs": [
        {
          "internalType": "address",
          "name": "",
          "type": "address"
        }
      ],
      "name": "isCreatedNFT",
      "outputs": [
        {
          "internalType": "bool",
          "name": "",
          "type": "bool"
        }
      ],
      "stateMutability": "view",
      "type": "function"
    },
    {
      "inputs": [
        {
          "internalType": "address",
          "name": "nftAddress",
          "type": "address"
        }
      ],
      "name": "isNFTCreatedByFactory",
      "outputs": [
        {
          "internalType": "bool",
          "name": "",
          "type": "bool"
        }
      ],
      "stateMutability": "view",
      "type": "function"
    },
    {
      "inputs": [
        {
          "internalType": "address",
          "name": "",
          "type": "address"
        },
        {
          "internalType": "uint256",
          "name": "",
          "type": "uint256"
        }
      ],
      "name": "nftsByCreator",
      "outputs": [
        {
          "internalType": "address",
          "name": "",
          "type": "address"
        }
      ],
      "stateMutability": "view",
      "type": "function"
    }
  ],
  "bytecode": "0x6080806040523461001b57600160005561311990816100218239f35b600080fdfe6080604090808252600491823610156200001857600080fd5b600091823560e01c9081631b2b669b146200061d575080634e2a6e3614620005de57806399351f801462000583578063bd9aabee1462000276578063c263bdaa1462000214578063c3722dd51462000168578063ddecf84f14620001485763ffa03821146200008657600080fd5b3462000144576020908160031936011262000140576001600160a01b039182620000af6200065b565b16845260038152818420908251809482845492838152019387528287209287915b83831062000126575050505050829003601f01601f191682019267ffffffffffffffff8411838510176200011357508291826200010f925282620006d7565b0390f35b634e487b7160e01b815260418552602490fd5b8454811686529481019460019485019490920191620000d0565b8280fd5b5080fd5b503462000144578160031936011262000144576020906001549051908152f35b50346200014457816003193601126200014457805190816001908154918282526020809201928187527fb10e2d527612073b26eecdfd717e6a320cf44b4afac2b0732d9fcbe2b7fa0cf69287905b828210620001f5575050505050829003601f01601f191682019267ffffffffffffffff8411838510176200011357508291826200010f925282620006d7565b84546001600160a01b03168652948501949383019390830190620001b6565b50346200014457806003193601126200014457620002316200065b565b602435926001600160a01b0380921681526003602052828120908154851015620002735750602093620002649162000677565b90549060031b1c169051908152f35b80fd5b503462000144576080366003190112620001445767ffffffffffffffff9280358481116200057f57620002ad9036908301620006a6565b93909460249485358281116200057f57620002cc9036908601620006a6565b6044929192358481116200057b57620002e99036908801620006a6565b90606435956001600160a01b039283881680980362000577576002895414620005675760028955851515806200055d575b8062000553575b1562000511578a51926129a580850193841185851017620004ff578493928f92620003778f93620003859562000367916200073f8a3960a088528c60a08901916200071d565b86810360208801528a8d6200071d565b92858403908601526200071d565b90886060820152608033910152039087f08015620004f557811698600197885491680100000000000000009283811015620004e3578a8101808c55811015620004d1577fb10e2d527612073b26eecdfd717e6a320cf44b4afac2b0732d9fcbe2b7fa0cf6018c7fffffffffffffffffffffffff00000000000000000000000000000000000000008254161790558b895260026020528a89208a60ff1982541617905533895260036020528a892091825493841015620004c05750507f149ef7a90045c937fdb01832e7215dd355a0f8970a731b49ce3a0f9a12a8237e9360209c936200047d84620004b6948f99968e01815562000677565b819291549060031b9189831b921b1916179055620004a68b519485948d86528d8601916200071d565b908382038e85015233976200071d565b0390a45551908152f35b634e487b7160e01b8a526041905288fd5b50634e487b7160e01b89526032825288fd5b50634e487b7160e01b89526041825288fd5b88513d88823e3d90fd5b634e487b7160e01b8b5260418c528d8bfd5b8a5162461bcd60e51b81526020818c0152600e818e01527f496e76616c696420706172616d730000000000000000000000000000000000006044820152606490fd5b5087151562000321565b508415156200031a565b8a51633ee5aeb560e01b81528a90fd5b8880fd5b8580fd5b8380fd5b5082346200014057602036600319011262000140573560015481101562000140576001600160a01b03906001602094527fb10e2d527612073b26eecdfd717e6a320cf44b4afac2b0732d9fcbe2b7fa0cf60154169051908152f35b503462000144576020366003190112620001445760ff816020936001600160a01b036200060a6200065b565b1681526002855220541690519015158152f35b9190503462000140576020366003190112620001405760ff906020936001600160a01b036200064b6200065b565b1681526002855220541615158152f35b600435906001600160a01b03821682036200067257565b600080fd5b8054821015620006905760005260206000200190600090565b634e487b7160e01b600052603260045260246000fd5b9181601f84011215620006725782359167ffffffffffffffff83116200067257602083818601950101116200067257565b6020908160408183019282815285518094520193019160005b828110620006ff575050505090565b83516001600160a01b031685529381019392810192600101620006f0565b908060209392818452848401376000828201840152601f01601f191601019056fe60a0604052346200057257620029a5803803806200001d8162000577565b928339810160a082820312620005725781516001600160401b03908181116200057257826200004e9185016200059d565b90602090818501518181116200057257846200006c9187016200059d565b936040860151908282116200057257620000889187016200059d565b94620000a560806200009d606084016200060f565b92016200060f565b9380518381116200055c576000968754916001938484811c9416801562000551575b888510146200045b578190601f94858111620004fe575b5088908583116001146200049a578b926200048e575b5050600019600383901b1c191690841b1788555b8051908582116200047a5783548481811c911680156200046f575b888210146200045b5790818484931162000408575b508790848311600114620003a4578a9262000398575b5050600019600383901b1c191690831b1782555b6001600160a01b039283169788156200037f57600880546001600160a01b03198082168c17909255604051919991908b9087167f8be0079c531659141344cd1fd0a4f28419497f9722a3daafe3b4186f6b6457e08480a384600b556000199586600c55607d60a21b81600d541617600d558916156200034b5750815195861162000337576009548481811c911680156200032c575b888210146200031857838111620002cf575b50869286116001146200026357949550859291908362000257575b50501b9260031b1c1916176009555b608052600d541617600d556040516123809081620006258239608051816115970152f35b01519350388062000224565b6009815286812093969394938691601f198316915b89838310620002b457505050106200029b575b50505050811b0160095562000233565b01519060f88460031b161c19169055388080806200028b565b85870151895590970196948501948893509081019062000278565b600982528782208480890160051c8201928a8a106200030e575b0160051c019085905b8281106200030257505062000209565b838155018590620002f2565b92508192620002e9565b634e487b7160e01b82526022600452602482fd5b90607f1690620001f7565b634e487b7160e01b81526041600452602490fd5b62461bcd60e51b815260048101889052600f60248201526e496e76616c6964206164647265737360881b6044820152606490fd5b604051631e4fbdf760e01b815260048101899052602490fd5b0151905038806200014e565b858b52888b208694509190601f1984168c5b8b828210620003f15750508411620003d7575b505050811b01825562000162565b015160001960f88460031b161c19169055388080620003c9565b8385015186558997909501949384019301620003b6565b909150848a52878a208480850160051c8201928a861062000451575b918791869594930160051c01915b8281106200044257505062000138565b8c815585945087910162000432565b9250819262000424565b634e487b7160e01b8a52602260045260248afd5b90607f169062000123565b634e487b7160e01b89526041600452602489fd5b015190503880620000f4565b8b8052898c208794509190601f1984168d5b8c828210620004e75750508411620004cd575b505050811b01885562000108565b015160001960f88460031b161c19169055388080620004bf565b8385015186558a97909501949384019301620004ac565b9091508a8052888b208580850160051c8201928b861062000547575b918891869594930160051c01915b82811062000538575050620000de565b8d815585945088910162000528565b925081926200051a565b93607f1693620000c7565b634e487b7160e01b600052604160045260246000fd5b600080fd5b6040519190601f01601f191682016001600160401b038111838210176200055c57604052565b919080601f84011215620005725782516001600160401b0381116200055c57602090620005d3601f8201601f1916830162000577565b92818452828287010111620005725760005b818110620005fb57508260009394955001015290565b8581018301518482018401528201620005e5565b51906001600160a01b0382168203620005725756fe6080604081815260048036101561001557600080fd5b600092833560e01c90816301ffc9a7146115bb5750806302d05d3f1461157757806306fdde03146114cf578063081812fc14611496578063095ea7b3146113bc5780631653190e1461131257806318160ddd146112d257806323b872dd146112ba5780632a55205a146111fa5780633f4ba83a1461119157806342842e0e146111685783816342966c6814610ffa5750806355f804b314610e2a5780635c975abb14610e065780636352211e14610dd657806364ba144e14610b0d5780636f8b44b014610a5357806370a08231146109fe578063715018a6146109a357806375794a3c1461098457806381ddcc1f146109625780638456cb59146109075780638da5cb5b146108df5780638f2fc60b146107f45780639471302e1461060a57806395d89b41146105275780639fbc8713146104ff578063a22cb46514610462578063b88d4fde146103fa578063c87b56dd146103c2578063d0def52114610297578063d5abeb0114610278578063e985e9c5146102265763f2fde38b1461019b57600080fd5b34610222576020366003190112610222576101b46116a3565b906101bd61180f565b6001600160a01b0380921692831561020c575050600854826001600160a01b0319821617600855167f8be0079c531659141344cd1fd0a4f28419497f9722a3daafe3b4186f6b6457e08380a380f35b51631e4fbdf760e01b8152908101849052602490fd5b8280fd5b50503461027457806003193601126102745760ff816020936102466116a3565b61024e6116be565b6001600160a01b0391821683526005875283832091168252855220549151911615158152f35b5080fd5b505034610274578160031936011261027457602090600c549051908152f35b508290346102745782600319360112610274576102b26116a3565b916024359067ffffffffffffffff82116103bf57506102d49036908301611709565b906102dd61180f565b6001600160a01b03841692831515806103b1575b1561036e57600b546020908781877fd35bb95e09c04b219e35047ce7b7b300e3384264ef84a40456943dbc0fc17c148888610338858e61033082611bf0565b600b55611c15565b81610355575b61034c865192839283611bc8565b0390a351908152f35b6103696103633684846117d8565b86611cf8565b61033e565b606490602087519162461bcd60e51b8352820152600c60248201527f496e76616c6964206d696e7400000000000000000000000000000000000000006044820152fd5b50600b54600c5410156102f1565b80fd5b5091346103bf5760203660031901126103bf57506103e36103f69235611f63565b905191829160208352602083019061167e565b0390f35b838234610274576080366003190112610274576104156116a3565b61041d6116be565b9060643567ffffffffffffffff811161045e573660238201121561045e5761045b93816024610451933693013591016117d8565b9160443591611a22565b80f35b8480fd5b50903461022257806003193601126102225761047c6116a3565b906024359182151580930361045e576001600160a01b03169283156104ea5750338452600560205280842083855260205280842060ff1981541660ff8416179055519081527f17307eab39ab6107e8899845ad3d59bd9653f200f220920489ca2b5937696c3160203392a380f35b836024925191630b61174360e31b8352820152fd5b5050346102745781600319360112610274576020906001600160a01b03600d54169051908152f35b50503461027457816003193601126102745780519082600180549161054b8361183b565b808652928281169081156105e25750600114610586575b505050610574826103f694038361179a565b5191829160208352602083019061167e565b94508085527fb10e2d527612073b26eecdfd717e6a320cf44b4afac2b0732d9fcbe2b7fa0cf65b8286106105ca575050506105748260206103f69582010194610562565b805460208787018101919091529095019481016105ad565b6103f697508693506020925061057494915060ff191682840152151560051b82010194610562565b5082903461027457602092836003193601126102225767ffffffffffffffff90823582811161045e576106409036908501611709565b93909261064b61180f565b84116107e1575061065d600a5461183b565b601f811161077f575b508394601f84116001146106d457506106c3908385967f2c2d11707f68bf1dfd8230437db5f0f4840eacb8cc232f1c58f1f0d10bcd489e96916106c9575b508460011b906000198660031b1c191617600a555b5192839283611bc8565b0390a180f35b9050830135876106a4565b94601f198416600a86527fc65a7bb8d6351c1cf70c95a316cc6a92839c986682d98bc35f958f4883f9d2a89686905b828210610766575050956106c39291857f2c2d11707f68bf1dfd8230437db5f0f4840eacb8cc232f1c58f1f0d10bcd489e97981061074c575b5050600184811b01600a556106b9565b840135600019600387901b60f8161c19169055868061073c565b8386013589556001909801979283019290810190610703565b600a85527fc65a7bb8d6351c1cf70c95a316cc6a92839c986682d98bc35f958f4883f9d2a8601f850160051c8101918786106107d7575b601f0160051c01905b8181106107cc5750610666565b8581556001016107bf565b90915081906107b6565b634e487b7160e01b855260419052602484fd5b5091903461027457806003193601126102745761080f6116a3565b92602435936bffffffffffffffffffffffff85169081860361045e576001600160a01b039061083c61180f565b1691821515806108d3575b1561089057506001600160a01b03197f8039bd6e4e7dba001c8840eb2e118d9d131246faa7d0d04335f7305127ec0b10949560a01b168217600d5582519182526020820152a180f35b606490602085519162461bcd60e51b8352820152600f60248201527f496e76616c696420726f79616c747900000000000000000000000000000000006044820152fd5b506103e8821115610847565b5050346102745781600319360112610274576020906001600160a01b03600854169051908152f35b50503461027457816003193601126102745760207f62e78cea01bee320cd4e420270b5ea74000d11b0c9f74754ebdbfc544b05a2589161094561180f565b61094d611f02565b600160ff19600654161760065551338152a180f35b505034610274578160031936011261027457602090600d5460a01c9051908152f35b505034610274578160031936011261027457602090600b549051908152f35b83346103bf57806003193601126103bf576109bc61180f565b806001600160a01b036008546001600160a01b03198116600855167f8be0079c531659141344cd1fd0a4f28419497f9722a3daafe3b4186f6b6457e08280a380f35b5091346103bf5760203660031901126103bf576001600160a01b03610a216116a3565b16928315610a3e5750806020938392526003845220549051908152f35b91516322718ad960e21b815291820152602490fd5b50903461022257602036600319011261022257813591610a7161180f565b600b546000198101908111610afa578310610ab85750816020917f7810bd47de260c3e9ee10061cf438099dd12256c79485f12f94dbccc981e806c93600c5551908152a180f35b6020606492519162461bcd60e51b8352820152601260248201527f4d617820737570706c7920746f6f206c6f7700000000000000000000000000006044820152fd5b634e487b7160e01b855260118252602485fd5b5082903461027457826003193601126102745767ffffffffffffffff908035828111610dd257610b409036908301611737565b939091602493843590811161022257610b5c9036908301611737565b9490610b6661180f565b86151580610dc9575b80610d93575b15610d5157610b88879694959897611e6e565b93610b958851958661179a565b868552610ba187611e6e565b602099868b019891601f1901368a37875b828110610bfb575050505050505083519485948186019282875251809352850193925b828110610be457505050500390f35b835185528695509381019392810192600101610bd5565b6001600160a01b039b9897999a9b80610c1d610c18848787611e86565b611eac565b1615610d0f57600b90815491610c3283611bf0565b9055610c4b82610c46610c18868989611e86565b611c15565b610c56838789611ec0565b9050610cec575b8b51831015610cda57908d7fd35bb95e09c04b219e35047ce7b7b300e3384264ef84a40456943dbc0fc17c148493898f8f878c610cb3610c18838f8f610ccf9f610cb9988f919a610cc79b60051b010152611e86565b94611ec0565b909551938493169583611bc8565b0390a3611bf0565b9a999896979a610bb2565b634e487b7160e01b8a5260328952878afd5b610d0a610d04610cfd85898b611ec0565b36916117d8565b83611cf8565b610c5d565b8c5162461bcd60e51b81528089018b90526011818901527f496e76616c696420726563697069656e740000000000000000000000000000006044820152606490fd5b875162461bcd60e51b81526020818501526012818401527f496e76616c6964206261746368206d696e7400000000000000000000000000006044820152606490fd5b50600b54878101809111610db7576000198101908111610db757600c541015610b75565b634e487b7160e01b8552601184528285fd5b50858714610b6f565b8380fd5b5091346103bf5760203660031901126103bf57506001600160a01b03610dfe60209335611b8d565b915191168152f35b50503461027457816003193601126102745760209060ff6006541690519015158152f35b5082903461027457602092836003193601126102225767ffffffffffffffff90823582811161045e57610e609036908501611709565b939092610e6b61180f565b84116107e15750610e7d60095461183b565b601f8111610f98575b508394601f8411600114610eed57506106c3908385967f6741b2fc379fad678116fe3d4d4b9a1a184ab53ba36b86ad0fa66340b1ab41ad9691610ee2575b508460011b906000198660031b1c1916176009555192839283611bc8565b905083013587610ec4565b94601f198416600986527f6e1540171b6c0c960b71a7020d9f60077f6af931a8bbf590da0223dacf75c7af9686905b828210610f7f575050956106c39291857f6741b2fc379fad678116fe3d4d4b9a1a184ab53ba36b86ad0fa66340b1ab41ad979810610f65575b5050600184811b016009556106b9565b840135600019600387901b60f8161c191690558680610f55565b8386013589556001909801979283019290810190610f1c565b600985527f6e1540171b6c0c960b71a7020d9f60077f6af931a8bbf590da0223dacf75c7af601f850160051c810191878610610ff0575b601f0160051c01905b818110610fe55750610e86565b858155600101610fd8565b9091508190610fcf565b9190503461027457602092836003193601126102225781359361101b611f02565b848452600281526001600160a01b03928383862054169333151590816110bb575b50505060029083611083575b8585525282206001600160a01b031981541690557fddf252ad1be2c89b69c2b068fc378daa952ba7f163c4a11628f55a4df523b3ef8280a480f35b6110a486600052600460205260406000206001600160a01b03198154169055565b838552600381528285208054600019019055611048565b90809293949596509161111c575b50156110db579081808795949361103c565b92151590506110f957916024925191637e27328960e01b8352820152fd5b5163177e802f60e01b815233918101918252602082019290925281906040010390fd5b3386149150811561114b575b8115611136575b50386110c9565b8688528284528488205416331490503861112f565b8588526005845284882033895284528488205460ff169150611128565b5050346102745761045b9061117c366116d4565b9192519261118984611768565b858452611a22565b50346102225782600319360112610222576111aa61180f565b6006549060ff8216156111ec575060ff1916600655513381527f5db9ee0a495bf2e6ff9c91a7834c1ba4fdd244a5e8aa4e537bd38aeae4b073aa90602090a180f35b8251638dfc202b60e01b8152fd5b5091346103bf57816003193601126103bf57602435918335825260026020526001600160a01b03908181842054161561127857600d54928360a01c948581029581870414901517156112655781518484166001600160a01b0316815261271086046020820152604090f35b634e487b7160e01b815260118652602490fd5b5162461bcd60e51b8152602081860152600f60248201527f546f6b656e206e6f7420657869737400000000000000000000000000000000006044820152606490fd5b83346103bf5761045b6112cc366116d4565b91611875565b50919034610274578160031936011261027457600b546000198101929083116112ff576020838351908152f35b634e487b7160e01b815260118452602490fd5b50503461027457816003193601126102745780519082600a546113348161183b565b808552916001918083169081156105e2575060011461135f57505050610574826103f694038361179a565b9450600a85527fc65a7bb8d6351c1cf70c95a316cc6a92839c986682d98bc35f958f4883f9d2a85b8286106113a4575050506105748260206103f69582010194610562565b80546020878701810191909152909501948101611387565b5090346102225780600319360112610222576113d66116a3565b916024356113e381611b8d565b33151580611483575b8061145b575b6114455781906001600160a01b03809616958691167f8c5be1e5ebec7d5bd14f71427d1e84f3dd0314c0f7b2291e5b200ac8c7c3b9258880a484526020528220906001600160a01b031982541617905580f35b835163a9fbf51f60e01b81523381850152602490fd5b506001600160a01b0381168652600560205283862033875260205260ff8487205416156113f2565b50336001600160a01b03821614156113ec565b50346102225760203660031901126102225781602093826001600160a01b0393356114c081611b8d565b50825285522054169051908152f35b5050346102745781600319360112610274578051908280546114f08161183b565b808552916001918083169081156105e2575060011461151b57505050610574826103f694038361179a565b80809650527f290decd9548b62a8d60345a988386fc84ba6bc95484008f6362f93160ef3e5635b82861061155f575050506105748260206103f69582010194610562565b80546020878701810191909152909501948101611542565b505034610274578160031936011261027457602090516001600160a01b037f0000000000000000000000000000000000000000000000000000000000000000168152f35b92505034610222576020366003190112610222573563ffffffff60e01b8116809103610222576020925063152a902d60e11b81149081156115fe575b5015158152f35b632483248360e11b811491508115611618575b50386115f7565b6380ac58cd60e01b81149150811561164a575b8115611639575b5038611611565b6301ffc9a760e01b14905038611632565b635b5e139f60e01b8114915061162b565b60005b83811061166e5750506000910152565b818101518382015260200161165e565b906020916116978151809281855285808601910161165b565b601f01601f1916010190565b600435906001600160a01b03821682036116b957565b600080fd5b602435906001600160a01b03821682036116b957565b60609060031901126116b9576001600160a01b039060043582811681036116b9579160243590811681036116b9579060443590565b9181601f840112156116b95782359167ffffffffffffffff83116116b957602083818601950101116116b957565b9181601f840112156116b95782359167ffffffffffffffff83116116b9576020808501948460051b0101116116b957565b6020810190811067ffffffffffffffff82111761178457604052565b634e487b7160e01b600052604160045260246000fd5b90601f8019910116810190811067ffffffffffffffff82111761178457604052565b67ffffffffffffffff811161178457601f01601f191660200190565b9291926117e4826117bc565b916117f2604051938461179a565b8294818452818301116116b9578281602093846000960137010152565b6001600160a01b0360085416330361182357565b60405163118cdaa760e01b8152336004820152602490fd5b90600182811c9216801561186b575b602083101461185557565b634e487b7160e01b600052602260045260246000fd5b91607f169161184a565b916001600160a01b03809216918215611a0957611890611f02565b600093828552826020946002865260409584878920541696879133151580611970575b509060027fddf252ad1be2c89b69c2b068fc378daa952ba7f163c4a11628f55a4df523b3ef9284611938575b858c5260038152828c2060018154019055868c5252808a20846001600160a01b0319825416179055519880a4168083036119195750505050565b6364283d7b60e01b845260048401526024830152604482015260649150fd5b61195987600052600460205260406000206001600160a01b03198154169055565b848c5260038152828c2080546000190190556118df565b919394509150806119c8575b1561198c578592918791386118b3565b5084866119a9576024915190637e27328960e01b82526004820152fd5b905163177e802f60e01b81523360048201526024810191909152604490fd5b5033871480156119ed575b8061197c5750858852600481523385838a2054161461197c565b5086885260058152818820338952815260ff82892054166119d3565b604051633250574960e11b815260006004820152602490fd5b929092611a30838583611875565b833b611a3d575b50505050565b6001600160a01b0394919293948095169360405195630a85bd0160e11b9283885233600489015216602487015260448601526080606486015284611a87602094608483019061167e565b039483816000978189895af1869181611b31575b50611afc575050503d600014611af3573d611ab5816117bc565b90611ac3604051928361179a565b81528093823d92013e5b82519283611aee57604051633250574960e11b815260048101849052602490fd5b019050fd5b60609250611acd565b919450915063ffffffff60e01b1603611b19575038808080611a37565b60249060405190633250574960e11b82526004820152fd5b9091508481813d8311611b86575b611b49818361179a565b81010312611b8257517fffffffff0000000000000000000000000000000000000000000000000000000081168103611b82579038611a9b565b8680fd5b503d611b3f565b8060005260026020526001600160a01b0360406000205416908115611bb0575090565b60249060405190637e27328960e01b82526004820152fd5b90918060409360208452816020850152848401376000828201840152601f01601f1916010190565b6000198114611bff5760010190565b634e487b7160e01b600052601160045260246000fd5b6001600160a01b038091168015611a0957611c2e611f02565b6000918383526002602052604083205416928315159182611cbe575b80845260036020526040842060018154019055818452600260205260408420816001600160a01b0319825416179055604051947fddf252ad1be2c89b69c2b068fc378daa952ba7f163c4a11628f55a4df523b3ef8580a4611ca9575050565b6339e3563760e11b8252600482015260249150fd5b611cdf82600052600460205260406000206001600160a01b03198154169055565b8484526003602052604084208054600019019055611c4a565b91909160009080825260209160078352604081209085519067ffffffffffffffff8211611e5a57611d29835461183b565b601f8111611e17575b508490601f8311600114611d9357907ff8e1a15aba9398e019f0b49df1a4fde98ee17ae345cb5f6b5e2c27f5033e8ce7969783611d88575b50508160011b916000199060031b1c19161790555b604051908152a1565b015190503880611d6a565b9196601f198816848452868420935b818110611e0057509160019391897ff8e1a15aba9398e019f0b49df1a4fde98ee17ae345cb5f6b5e2c27f5033e8ce7999a9410611de7575b505050811b019055611d7f565b015160001960f88460031b161c19169055388080611dda565b929387600181928786015181550195019301611da2565b838252858220601f840160051c810191878510611e50575b601f0160051c01905b818110611e455750611d32565b828155600101611e38565b9091508190611e2f565b634e487b7160e01b81526041600452602490fd5b67ffffffffffffffff81116117845760051b60200190565b9190811015611e965760051b0190565b634e487b7160e01b600052603260045260246000fd5b356001600160a01b03811681036116b95790565b9190811015611e965760051b81013590601e19813603018212156116b957019081359167ffffffffffffffff83116116b95760200182360381136116b9579190565b60ff60065416611f0e57565b60405163d93c066560e01b8152600490fd5b6020611f61919392936040519481611f41879351809286808701910161165b565b8201611f558251809386808501910161165b565b0103808552018361179a565b565b611f6c81611b8d565b506000818152602060078152604091828120835194829186815493611f908561183b565b9283835260019588878216918260001461232a5750506001146122ec575b50611fbb9250038761179a565b8451600954968491611fcc8961183b565b80825281868b1694858a816000146122cf5750600114612274575b611ff39250038261179a565b80511561226857815161225657505061200b82611b8d565b508551809785908761201c8261183b565b808552949182156122395750506001146121de575b61203d9250038761179a565b8551156121c9578092819481927a184f03e93ff9f4daa797ed6e38ed64bf6a1f01000000000000000090818110156121bc575b50506d04ee2d6d415b85acef8100000000808710156121af575b50662386f26fc10000808710156121a0575b506305f5e10080871015612191575b5061271080871015612182575b506064861015612170575b906021929184600a80981015612166575b9594939291908483016120f26120e9826117bc565b9a519a8b61179a565b808a52612101601f19916117bc565b019036908a013750860101905b612123575b5050505061212091611f20565b90565b600019019083907f30313233343536373839616263646566000000000000000000000000000000008282061a8353049182156121615791908261210e565b612113565b90920191846120d4565b606490950494600292909201916120c3565b600491939604950191386120b8565b600891939604950191386120ab565b6010919396049501913861209c565b819396049501913861208a565b0495508692503880612070565b505092505051906121d982611768565b815290565b505060098452868585857f6e1540171b6c0c960b71a7020d9f60077f6af931a8bbf590da0223dacf75c7af5b85831061222057505061203d9350820101612031565b80919294505483858d0101520191018690858a9361220a565b60ff19168482015261203d94151560051b84010191506120319050565b95509550505050506121209250611f20565b50965050505050505090565b505060098752818888887f6e1540171b6c0c960b71a7020d9f60077f6af931a8bbf590da0223dacf75c7af5b8583106122b6575050611ff39350820101611fe7565b80919294505483858801015201910189908885936122a0565b915050611ff39260ff198d1682840152151560051b820101611fe7565b915050845286858086208587915b858310612311575050611fbb935082010138611fae565b80919294505483858d0101520191018690858a936122fa565b60ff191685820152611fbb95151560051b8501019250389150611fae905056fea2646970667358221220ee61a8bc89e1b59c8f240d2d0dd790180cae7e62c6ae44dc88f1dfe889b8669c64736f6c63430008140033a2646970667358221220e32c753691e0fa4e66f3f6ddbecfc78852de468350c84a15f24fad9dbd668c7b64736f6c63430008140033",
  "linkReferences": {},
  "deployedLinkReferences": {}
}